:020000040800F2
:1000000000800020C5390008DD180008E11800084C
:10001000E5180008E9180008ED18000800000000C5
:10002000000000000000000000000000F1180008BF
:10003000F518000800000000F9180008FD18000875
:10004000153A0008153A0008153A0008153A000854
:10005000153A0008153A0008153A0008153A000844
:10006000153A0008153A0008153A0008153A000834
:10007000153A0008153A0008153A0008153A000824
:10008000153A000800000000153A00081919000888
:100090000D19000825190008153A0008153A00083E
:1000A000153A0008153A0008153A0008153A0008F4
:1000B000153A0008153A0008153A0008153A0008E4
:1000C000153A0008153A0008153A0008153A0008D4
:1000D000153A0008153A0008153A0008153A0008C4
:1000E000153A0008153A0008153A0008153A0008B4
:1000F000153A0008153A0008153A000800000000FB
:1001000000000000153A000800000000153A000841
:10011000153A000800000000153A0008153A0008DA
:10012000153A0008153A0008153A0008153A000873
:10013000153A00080000000000000000153A000811
:10014000153A0008153A0008000000000000000001
:10015000000000000000000000000000000000009F
:10016000000000000000000000000000153A000838
:10017000153A000800000000000000000000000028
:1001800000000000153A0008000000000000000018
:10019000000000000000000000000000000000005F
:1001A0000000000000000000153A0008153A0008A1
:1001B000153A0008153A0008153A0008000000003A
:1001C00000000000153A00080000000000000000D8
:0801D000153A0008153A000879
:100200000348044B834202D0034B03B118477047A5
:10021000FC010020FC010020000000000548064B06
:100220001B1AD90F01EBA301491002D0034B03B1F4
:1002300018477047FC010020FC010020000000006E
:1002400010B5064C237843B9FFF7DAFF044B13B11E
:100250000448AFF300800123237010BD000200208A
:10026000000000000098000808B5044B1BB10449C9
:100270000448AFF30080BDE80840CFE7000000006D
:1002800004020020009800080CB410B59CB01EAB0E
:10029000029106916FF0004104910791084953F8CB
:1002A000042B0591002402A901931B9400F06EF920
:1002B000029B1C701CB0BDE8104002B0704700BF2C
:1002C0000802FFFF0EB430B59CB06FF000411FABC9
:1002D000049107910A4953F8042B029000240690D8
:1002E000084D0868019302A905951B9400F04EF98A
:1002F000029B1C701CB0BDE8304003B0704700BFCB
:10030000000000200802FFFF80EA0102844612F08C
:10031000030F4FD111F0030F32D14DF8044D11F0FE
:10032000040F51F8043B0BD0A3F101329A4312F0B1
:10033000803F04BF4CF8043B51F8043B16D100BF8A
:1003400051F8044BA3F101329A4312F0803FA4F11B
:1003500001320BD14CF8043BA24312F0803F04BFA2
:1003600051F8043B4CF8044BEAD023460CF8013B0F
:1003700013F0FF0F4FEA3323F8D15DF8044B7047B9
:1003800011F0010F06D011F8012B0CF8012B002AF7
:1003900008BF704711F0020FBFD031F8022B12F0E6
:1003A000FF0F16BF2CF8022B8CF8002012F47F4FA1
:1003B000B3D1704711F8012B0CF8012B002AF9D1A9
:1003C000704700BF2DE9F0478F681D46AF420B68AC
:1003D0000C46164636D8B1F90CC01CF4906F0ED1FD
:1003E0003D46184631462A4600F0EAFBA368DF1B6B
:1003F0002368A7602B4400202360BDE8F0874A698A
:10040000096902EB42025F1A02EBD2726B1C5210B6
:100410003B44934292BF914699461A461CF4806F22
:10042000804611D0114600F0EDFA824600B32169F2
:100430003A4600F095FCA38923F4906343F08003CF
:10044000A38105E02F46CCE700F024FD824658B199
:100450000AEB0703A9EB0707A760C4F810A0C4F8CC
:10046000149023602F46BCE72169404600F04AFB08
:10047000A3890C2243F04003C8F800204FF0FF305E
:10048000A381BAE72DE9F04F9368176883B09246CD
:10049000002B74D04FF0000B8B680A6881460C4625
:1004A0005D4645E0B4F90C3013F4906F2CD0D4E9DC
:1004B0000401161A01EB410202EBD272711C5210B8
:1004C0002944914292BF904688460A465B0539D539
:1004D0001146484600F096FA019000283DD0324679
:1004E000216900F03DFCA289019B22F4906242F058
:1004F0008002A2819819A8EB0606A660C4F81480B1
:1005000023612060A8462E463246594600F058FB2B
:10051000DAF80810A3682268A3EB08033244491BE9
:10052000A3602260CAF8081049B3D7E900B50837BC
:1005300098461046002DF8D09D421E46B2D2A846DD
:100540002E46E1E70146484600F0A4FC0346002899
:10055000D0D12169484600F0D5FAA3890C2243F096
:100560004003C9F800204FF0FF30A3810022002390
:10057000CAF80820CAF8043003B0BDE8F08F0020A4
:100580000023CAF8043003B0BDE8F08F2DE9F04F26
:100590001C468B891D069DB088468146934603D52F
:1005A0000B69002B00F0F1800023099343F2200334
:1005B000ADF829309BF800307D4D03940126002BC7
:1005C00073D0DA4603E01AF8013F002B75D0252BD3
:1005D000F9D1BAEB0B0473D19AF80020002A64D049
:1005E00000234FF0FF32CDE905230AF1010A0493FD
:1005F00007938DF853301A9305E0049A06FA03F333
:100600001A430492A2465446052214F8011B2846B8
:1006100000F056FBA346431B0028EED1049BD806EE
:1006200044BF20228DF8532019079AF8001044BFC8
:100630002B228DF853202A2950D1039A11680432B5
:10064000002903927CDB07919AF801102E295BD0D8
:10065000584C0322204600F033FB38B1049B001BAA
:100660004022824013430BF1010B04931BF8011B42
:1006700051488DF82810062200F022FB002865D092
:100680004E4B002B55D003AA00924D4B424604A975
:100690004846AFF3008007467A1C06D0099B3B44CE
:1006A00009939BF80030002B8BD1B8F80C305B0617
:1006B0007AD409981DB0BDE8F08FBAEB0B04F4D0E2
:1006C00023465A4641464846FFF77CFE0130ECD0AF
:1006D000099B9AF80020234409937FE7A1F1300297
:1006E000092A88BFD346B1D8079B00E0013421789E
:1006F00003EB830302EB4303A1F13002092AF5D98E
:100700002E290793A346A3D19BF801102A2927D1AC
:10071000039B9BF802101A6805920433002A0BF120
:1007200002000393B8BF4FF0FF338346B8BF059371
:100730008EE7039B073323F0070308330393ADE7EA
:10074000494243F00203079104937DE703AA009214
:100750001B4B424604A9484600F060FC07469BE755
:10076000A1F130020023092A05930BF1010B3FF69A
:100770006FAF1BF8011F03EB830302EB4303A1F1EF
:100780003002092AF5D9059362E7402100F03AF9D1
:10079000C8F80000C8F8100018B14023C8F8143099
:1007A00002E70C23C9F800304FF0FF3082E700BFAA
:1007B0001C9A0008249A0008289A000800000000EB
:1007C000C503000870B50F4B0F4DAB42A3EB0506F8
:1007D00007D0B610002455F8043B01349847A642D0
:1007E000F9D809F00DF8094D094B5E1BAB424FEAF1
:1007F000A60606D0002455F8043B01349847A642CB
:10080000F9D870BD889A0008889A0008889A00086C
:100810008C9A0008000000000000000000000000AA
:1008200000000000000000000000000000000000C8
:1008300000000000000000000000000000000000B8
:1008400030B490F800F020F007016FF0000C10F0C9
:10085000070491F820F040F048804FF000046FF05A
:100860000700D1E9002391F840F000F1080082FA76
:100870004CF2A4FA8CF283FA4CF3A2FA8CF34BBB41
:10088000D1E9022382FA4CF200F10800A4FA8CF2BA
:1008900083FA4CF3A2FA8CF3E3B9D1E9042382FA88
:1008A0004CF200F10800A4FA8CF283FA4CF3A2FA9D
:1008B0008CF37BB9D1E9062301F1200182FA4CF2D5
:1008C00000F10800A4FA8CF283FA4CF3A2FA8CF33C
:1008D000002BC6D0002A04BF04301A4612BAB2FA5E
:1008E00082F200EBD20030BC7047D1E9002304F063
:1008F0000305C4F100004FEAC50514F0040F91F898
:1009000040F00CFA05F562EA05021CBF63EA050334
:1009100062464FF00004AAE7830730B547D0541E63
:10092000002A3ED0CAB2034601E0013C39D303F8A5
:10093000012B9D07F9D1032C2CD9CDB205EB052550
:100940000F2C05EB054535D9A4F1100222F00F0C50
:1009500003F1100EE6444FEA121C1A46C2E9005594
:10096000C2E9025510327245F8D10CF1010214F0BF
:100970000C0F03EB021204F00F0C13D0ACF10403C4
:1009800023F003030433134442F8045B9342FBD186
:100990000CF003042CB1C9B21C4403F8011BA342A0
:1009A000FBD130BD64461346002CF4D1F9E7034671
:1009B0001446C0E71A46A446E0E700BF70B5104EE3
:1009C000336805460C46B3B12146284600F09AFC30
:1009D000431C0CD0C41C24F00304A04205D0211AEF
:1009E000284600F08FFC013001D0204670BD4FF04A
:1009F000FF34204670BD194600F084FC3060E3E708
:100A00001C0200202DE9F843CD1C25F00305083514
:100A10000C2D38BF0C25002D064618DBA94216D830
:100A2000DFF8DC8000F03CFCD8F80420A2B11446CA
:100A300003E0636822467BB11C4623685B1BF8D445
:100A40000B2B1FD89442636854D053600CE00C23E6
:100A500033600020BDE8F88329463046FFF7AEFF3B
:100A6000431C044619D00560304600F01BFC04F11D
:100A70000B00231D20F00700C21A1CBF1B1AA35035
:100A8000BDE8F88361199442256014BF5160C8F82D
:100A90000410635163684B60E6E7D8F804701FB335
:100AA0003C467F68002FFBD123683946304604EB73
:100AB000030900F027FC814516D12368ED1A294669
:100AC0003046FFF77BFF01300ED02368D8F80420B2
:100AD0002B442360536883B1A34203D01A465B685A
:100AE0009C42FBD10023B0E70C233360304600F07A
:100AF000D9FBAEE7C8F80430B6E7C8F80470B3E72E
:100B00001C020020002950D038B551F8043C0C1FBD
:100B1000002BB8BFE418054600F0C2FB274A136853
:100B20002BB1A3420CD92168601883422CD063609A
:100B300028461460BDE8384000F0B4BBA3420FD88B
:100B40001A465B68002BF9D111685018844217D0FF
:100B50002CD3636054602846BDE8384000F0A2BB47
:100B600011685018A04214D020D821686018834220
:100B7000EFD118685B680844C4E900035460EAE7F1
:100B800023680B441360E6E718685B68084420603C
:100B9000CDE720680144501883421160DBD1D3E9CE
:100BA00000040144C2E90014D5E770470C232B6010
:100BB0002846BDE8384000F075BB00BF2002002089
:100BC00088420ED98B1883420BD900EB020C002A05
:100BD0006ED0624613F801CD02F801CD9942F9D1E9
:100BE00070470F2A0FD8034602F1FF3C002A5FD05E
:100BF0000CF1010C013B8C4411F8012B03F8012F7F
:100C00006145F9D1704740EA01039B0751D1A2F138
:100C1000100370B501F1200C23F00F0501F1100E47
:100C200000F11004AC441B095EF8105C44F8105C41
:100C30005EF80C5C44F80C5C5EF8085C44F8085CF8
:100C40005EF8045C44F8045C0EF1100EE64504F115
:100C50001004E9D1013312F00C0F01EB031102F083
:100C60000F0400EB031328D0043C24F003064FEAE2
:100C7000940C1E441C1F8E465EF8045B44F8045F0F
:100C8000B442F9D10CF1010402F0030203EB840336
:100C900001EB840102F1FF3C4AB10CF1010C013B74
:100CA0008C4411F8012B03F8012F6145F9D170BD77
:100CB000704702F1FF3C03469AE72246EAE700BF8D
:100CC00001F0FF01102A2BDB10F0070F08D010F8FD
:100CD000013B013A8B422DD010F0070F42B3F6D101
:100CE000F0B441EA012141EA014122F007047FF01A
:100CF00000070023F0E80256083C85EA010586EA71
:100D0000010685FA47F5A3FA87F586FA47F6A5FAAC
:100D100087F68EB9EED1F0BC01F0FF0102F00702B8
:100D200032B110F8013B013A83EA010313B1F8D163
:100D30000020704701387047002D06BF3546033844
:100D4000073815F0010F07D1013015F4807F02BF7D
:100D5000013015F4C03F0130F0BC0138704700BFCE
:100D6000844641EA000313F003036DD1403A41D3B6
:100D700051F8043B40F8043B51F8043B40F8043B75
:100D800051F8043B40F8043B51F8043B40F8043B65
:100D900051F8043B40F8043B51F8043B40F8043B55
:100DA00051F8043B40F8043B51F8043B40F8043B45
:100DB00051F8043B40F8043B51F8043B40F8043B35
:100DC00051F8043B40F8043B51F8043B40F8043B25
:100DD00051F8043B40F8043B51F8043B40F8043B15
:100DE00051F8043B40F8043B51F8043B40F8043B05
:100DF000403ABDD2303211D351F8043B40F8043BA5
:100E000051F8043B40F8043B51F8043B40F8043BE4
:100E100051F8043B40F8043B103AEDD20C3205D3B4
:100E200051F8043B40F8043B043AF9D2043208D0AC
:100E3000D2071CBF11F8013B00F8013B01D30B881E
:100E400003806046704700BF082A13D38B078DD0FC
:100E500010F003038AD0C3F10403D21ADB071CBFCE
:100E600011F8013B00F8013B80D331F8023B20F838
:100E7000023B7BE7043AD9D3013A11F8013B00F871
:100E8000013BF9D20B7803704B7843708B788370F9
:100E9000604670472DE9F041144641B30AB3064657
:100EA0000D4600F041FA8442074602D8B4EB500FD9
:100EB00013D821463046FFF7A5FD804650B1BC420D
:100EC0002246294628BF3A46FFF74AFF29463046C0
:100ED000FFF718FE4046BDE8F081A8464046BDE851
:100EE000F081A046FFF70EFE4046BDE8F081BDE868
:100EF000F0411146FFF786BD2DE9F84F92461F4697
:100F00000A698B68DDF828909A42B8BF1A46CAF879
:100F1000002091F843300C46064613B10132CAF85E
:100F20000020226891065FD5DAF800300233CAF853
:100F30000030226812F0060F11461DD1E168994277
:100F4000D8BF114618DD4FF0000804F1190B05E079
:100F5000E568DAF80030ED1A45450CDD01235A4604
:100F600039463046C847013008F10108F0D14FF04A
:100F7000FF30BDE8F88F216894F84330003B18BF7C
:100F800001238A060AD5E1185A1C302081F8430053
:100F9000224494F8451082F84310023304F14302CE
:100FA00039463046C8470130E1D02368DAF80050AE
:100FB000216903F00603042BD4E902201BD08A42E6
:100FC00020DD4FF00008521A90441A34002501E049
:100FD000454517DA0123224639463046C8470130D5
:100FE00005F10105F4D1C2E712F0060F0DD0003B68
:100FF00018BF0123D2E7401B8A4220EAE078E2DCF6
:101000000028E2DC0020BDE8F88FE168DAF8003063
:101010009942D8BF114696DCAEE700BF2DE9F047F4
:10102000174684B00A7E0C9D0C460646984601F190
:10103000430C002A35D0A2F15803D9B2202969D82F
:10104000202B67D8DFE813F0E60066006600660034
:101050006600660066006600660066006600AC001A
:10106000700066006600660066007000660066003C
:101070006600660021008300C60066006600B600B8
:101080006600830066006600EC002B6822686169D8
:10109000181D286010061B6802D4520600F1E0807B
:1010A00019600023E1462361CDF800803B4603AA86
:1010B00021463046FFF720FF013020D023694A4601
:1010C00039463046C047013019D02368E068DDF862
:1010D0000C909B0718D5484516DD002504F1190A28
:1010E00004E0E068A0EB0903AB420DDD01235246AA
:1010F00039463046C047013005F10105F1D14FF0C6
:10110000FF3004B0BDE8F0874845B8BF484604B09A
:10111000BDE8F08784F84220012004F14209002351
:10112000206184F84330BFE72A682368111D180640
:10113000296002D4590600F1958010680146002804
:101140006268C0F2938054484FF00A0E15E02068A0
:101150002B6810F0800F53F8041B02D1400648BFE3
:1011600089B26F2A4C482B6014BF4FF00A0E4FF023
:10117000080E0023626884F84330002AA26051DB25
:10118000236823F00403236000294BD1002A7BD17C
:10119000E146BEF1080F56D0ACEB0903236183E7AB
:1011A0002B681A6804332B6004F1420984F842204A
:1011B0000120B4E72B686268191D2960D3F80090FC
:1011C00000214846FFF77CFD002863D0A0EB090012
:1011D0006060A4E7236843F02003236078222F484F
:1011E00084F845202A6813F0800F52F8041B03D1BD
:1011F00013F0400F18BF89B22A60DA0744BF43F0EA
:101200002003236019B9236823F0200323604FF0E3
:10121000100EAEE7582384F845301F482368E1E7F5
:101220002368DBE77546E146B1FBF5F305FB131ACE
:101230000A46AA4210F80A1009F8011D1946F3D20D
:10124000BEF1080FA8D12368DD07A5D56268236920
:101250009A42A1DC302309F8013C09F1FF399BE7F0
:1012600019801EE7B2F90010084668E72D20002A11
:10127000A26084F8430002DB23F0040323600A2504
:1012800005484942AE46CEE7037884F8423004F17F
:1012900042097EE7606842E7309A0008449A0008F5
:1012A000704700BF704700BF032A30B415D941EA28
:1012B0000004A40784460B4604D0541E0FE0043AF1
:1012C000032A08D91946604653F8044B5CF8045BBE
:1012D000A542F4D0F1E760461946541E7AB1431E88
:1012E0000139021901E09A4209D013F8010F11F8EF
:1012F00001CF6045F7D0A0EB0C0030BC7047002058
:1013000030BC704738B5074D0022044608462A60B5
:1013100000F012F8431C00D038BD2B68002BFBD026
:10132000236038BD6003002051F8043C181F002BD7
:10133000BCBF0B58C0187047044A05491368002BFE
:1013400008BF0B461844106018467047640300201D
:10135000005900202DE9F84300F06EF900B9FEE7CE
:1013600001F0AAFA0028FAD002F09CF80028F6D082
:1013700002F0F6FF00F032FB01F0ECFC02F04CFB57
:101380001D4DDFF878801E4E4FF00009012702F056
:1013900055FA30B101F0D6FA2F7002F04FFA00285A
:1013A000F8D12B7813B3287088F8009001F0E4FA94
:1013B00003F0B2FF04460146002001F0A5FB2146E0
:1013C000002003F095FB2146002002F05FFE21463D
:1013D000002000F0C9FE3368E31A632BD7D93460CC
:1013E00000F0A2FD204601F079FCD0E798F800302B
:1013F000002BDDD0D8E700BF68030020500000209C
:101400006C030020024B4FF000629A60704700BFEF
:1014100000ED00E01B4B00B5986D40F002009865B0
:101420009B6D95B003F0020344220021009303A8B2
:10143000009BFFF771FA144B144A1B681449A2FB76
:1014400003239B0C013B4FF0FF3201A8CDE90113B0
:10145000049207F073FB18B1002015B05DF804FB8F
:1014600001A807F0FDFB0028F6D102460146152031
:1014700003F088FF152003F0C1FF012015B05DF8CF
:1014800004FB00BF001002405400002083DE1B4319
:1014900000040040024A136801331360704700BF24
:1014A000700300200249034A00234B621360704717
:1014B000000400407003002008B503F049FF40F22B
:1014C0006943984207D940F27943C01AB0FA80F0D4
:1014D0004009400008BDB0F58D6F34BF00200120E9
:1014E000400008BD014B1868704700BF740300201E
:1014F000034A044B10685B6A43EA0040704700BF30
:101500007003002000040040014B1868704700BFC2
:101510007003002010B58EB004463422002101A8CB
:10152000FFF7FAF901A805F08DF8022C15D0032C6D
:101530000BD0012C19D1079B03F4E063B3F5806F46
:101540000CBF022001200EB010BD079B13F0806F6E
:101550000CBF022001200EB010BD079B13F0806F5E
:1015600014BF022001200EB010BD00200EB010BD2F
:10157000032851D030B58FB0044601F045F810B1C2
:1015800034200FB030BD03F0E3FE40F269439842CF
:1015900005D940F27943984204D03620F1E7B0F5FE
:1015A0008D6FFAD3342200216846FFF7B5F96846FB
:1015B00005F048F8012C31D0022CEED1069B5B01DE
:1015C00028D44FF4C4444FF048653022002101A8CC
:1015D000FFF7A2F9CDE90545164B042200929A695E
:1015E0004CF2FA3142F040429A61196104F098FDE0
:1015F000E8B904F0B5FDD0B9684604F0A9FE044688
:1016000004F0C2FD054604F09FFD2C4340EA0403AC
:10161000DBB263B90220B4E736207047069B03F4BF
:10162000E063B3F5806FF5D04FF48065CDE73B20E4
:10163000A7E700BF0020024070B5B2B003F048FE3B
:1016400018B10024204632B070BD4A4DAB6D43F056
:101650008053AB65AB6D03F0805300930446009B51
:1016600006F066FA2A6E012632432A662A6E149420
:1016700032400223032101920F20CDE91863CDE906
:101680001D33019A1F9321224FF480331A910321B5
:10169000CDE91223CDE906014FF48063142212A88C
:1016A000CDE91544CDE9093308941B9617941C9293
:1016B00006F010FB0028C4D1082106A806F07EFD24
:1016C0000028BED10146402222A8FFF725F94FF499
:1016D00040524FF0807321A821922D9306F08EFE88
:1016E00004460028ADD14FF00053CDE90C034BF672
:1016F0007F322223CDE90F230CA8202311930E94CF
:1017000007F0F2F9EB6C3343EB64EB6C334002937C
:10171000029BEB6C43F00203EB64EB6C03F00203FF
:101720000393039BEB6C43F00403EB64EB6C03F05B
:1017300004030493049BEB6C43F02003EB64EB6C19
:1017400003F020032246214605934FF0FF30059B0E
:1017500003F018FE4FF4805006F0A0FF064B18600F
:10176000FFF758FE044600283FF46BAF3046FFF702
:10177000FFFE67E70010024074030020FF2818D81E
:101780000D4AB2F8E0100D4A4FF6FF7399420ED0A1
:101790000B490C4BD1F8E01503EA812303F10063F8
:1017A0000130A3EBC020824288BF00207047064B67
:1017B000F6E70020704700BF0075FF1F189800086B
:1017C0000070FF1F00FCFF0300000208FF2842D842
:1017D0002DE9F0413B4B0E46B3F8E0103A4B15466D
:1017E0004FF6FF72914286B02BD0384A384CD2F86F
:1017F000E02504EA822404F100640130A4EBC02453
:10180000A34224D8B5F5FA6F21D823884FF6FF728A
:10181000934208BF00239D4206D12A463146A01CB0
:10182000FFF742FD00284AD02A4B9A6942F0404215
:101830009A614CF2FA321A6104F072FC68B13520F8
:1018400006E0254C0130A4EBC024A342DAD93D20A8
:1018500006B0BDE8F0813D20704704F17843DB0A13
:10186000049300220123CDE9022301A9012302A848
:10187000059304F0BFFC0746E0B9F5B1C6F10808CE
:101880003146B01C2A46A04405F10904FFF798F937
:10189000C4F3CC0426F8085903E00137BBB2A342D5
:1018A0000BD208EB06010020F6E9022304F080FBCE
:1018B0000028F2D004F048FCC1E704F045FC022007
:1018C000C6E700BF0075FF1F189800080070FF1FD3
:1018D00000FCFF030020024000000208FEE700BFFA
:1018E000FEE700BFFEE700BFFEE700BFFEE700BF68
:1018F000704700BF704700BF704700BF08B503F0D6
:10190000FFFCBDE8084003F0A1BD00BF014805F0A1
:1019100007BA00BF340A0020014805F001BA00BF31
:10192000340A002008B5002000F0C0FEBDE80840E1
:1019300004F07ABA70B51646054608461C4601F012
:1019400041FAB6F1005F15D0049B73B1B4B91E2300
:10195000C200102894BF02F11A0102F11E01059A7B
:10196000B2F5801F0DD0C81870BDC2002CBB02F1AB
:101970002F0070BD3CB3B4F1804F26D03123C2009C
:10198000E7E7D5E959201044D5F8602100FB022291
:10199000104800FB02F2D5E9550420440130B2FBA7
:1019A000F0F20D48D5F85041B2FBF4F201FB02F21F
:1019B000A0FB020203EB924070BDB4F1804F06D150
:1019C00002F1430070BD2F2070BD432070BD312354
:1019D000BFE700BF40420F0083DE1B432B4BF0B537
:1019E0009A6D2B4D42F000729A659B6D87B0002472
:1019F00003F000730093002200232046C5E95E2314
:101A0000C5F85041009BC5F86041C5F88C41C5F848
:101A10009C4185F8704102F0EDFC1E4B1B68A3420F
:101A200026DA01AE1C4A1D4B116801911C491B7836
:101A30000868059300240222032331460292CDE96F
:101A4000034304F08BFE174B17481B682B6080275D
:101A500001233146CDE90173CDE90344059404F037
:101A60007DFE11482246394605F054F807B0F0BD16
:101A70000E4A019301AE012102911068059431468E
:101A8000CDE9034404F06AFECCE700BF0010024039
:101A9000780300205800002064000020600000202F
:101AA000680000206C000020000400485C0000205A
:101AB0002DE9F043A34D4FF4D07303FB005383B0E3
:101AC00093F87021002A73D1D3F85031002B6BD0DA
:101AD00095F8703104460F46002B00F0E380204655
:101AE00002F088FC204600F0E9FD0021084600F0E5
:101AF00075FF954A4FF4D07304FB03F3125DEE18A3
:101B000002F00102327403F5BC710122B27468184C
:101B1000002272607274F263F7606F58406803F1DC
:101B200030012944C1E90170B26003F5A872A91817
:101B3000D1E9017055F802C0C96810332B44C3E9DC
:101B400001C1C3E90370D6F86031002B40F08680F4
:101B5000FFF7C8FC7D4B984222D94FF4D07304FBA9
:101B600003F3EE1803F5B872D6E955311944D6F8E7
:101B70005031774F01FB033376494FF47A7CA1FB58
:101B800000100021800C0CFB03F3B3FBF0F3304694
:101B9000C6F88431B95286F8711103F05DFC58B172
:101BA000352003B0BDE8F0833A2003B0BDE8F083F0
:101BB000342003B0BDE8F0830146304603F008FE50
:101BC0000028EDD10221304603F016FE0028E7D1AF
:101BD00001221021304604F081F802460028DFD1AE
:101BE0004FF46041304604F08FF807460028D7D103
:101BF000304603F039FED6F86031C6F894717BB1F7
:101C0000D6E959210A4402FB03333221524A03FB2D
:101C100001F1A2FB012149094B1E3E2B40F28180BC
:101C20004FF4D07304FB03F3EA18D2E95E1201EB20
:101C30000209B9F1000F55DD6433EF184FF00008C9
:101C400005E008F10108C14507F118074AD03946F7
:101C5000304603F06FFD0028F3D0A1E7FFF742FC08
:101C6000D6E959C1D6F85031D6F860E1B0FBFEF79D
:101C70000CEB01020132B7FBF2F713BBBB422CBFE6
:101C80004FF480774FF440774FF4D07303FB045345
:101C9000D3F86C219F60C3F824E0C3F82CC019630B
:101CA0009A6255E703F1804303F504339A6B42F0DF
:101CB00000729A639A6B22F000729A63FFF7F2FB4C
:101CC0000DE7FFF70FFCD6E9553213445A1CD6E94D
:101CD00058ECD6F85031D6F86811B0FBF3F3B3FBEB
:101CE000F2F3CBE74FF4D07303FB0455D5E95E3232
:101CF000D34214BF01220022002300931146304634
:101D000003F044FD304603F0C1FD00287FF448AFE6
:101D10000146204600F092FE0123022085F8703132
:101D200043E73A463046C6F8941103F079FD00289F
:101D30007FF436AF304603F085FD00283FF470AFE6
:101D40002EE700BF78030020180500203F420F0057
:101D50007B03002083DE1B431F85EB5138B5114CFC
:101D600094F8703103B938BD2046002503F0A6FD74
:101D7000204603F061FC002328460022C4E95E23CC
:101D8000C4F85051C4F86051C4F88C51C4F89C5147
:101D900084F8705102F02EFB28460121BDE838403E
:101DA00000F04CBE78030020F8B5164F4FF4D07405
:101DB00000FB04F43D1995F8703103B9F8BD0646EF
:101DC000284603F07BFD04F5BC74284603F034FC80
:101DD0003C44002300210020C5F85031C5F8603193
:101DE000C4E900013046C5F88C31C5F89C3185F84E
:101DF000703102F0FFFA30460121BDE8F84000F0F2
:101E00001DBE00BF780300202DE9F8432A4C4FF493
:101E1000D07505FB00450646D5F860810F46914612
:101E2000B8F1000F13D1D5F85031FBB900237B6115
:101E30004FF4D07303FB06444A463946204603F06C
:101E4000ADFD30BB237C012B2AD0BDE8F883FFF722
:101E500049FBD5E9593213445A1CD5F85031D5F80D
:101E60006011B0FBF1F8B8FBF2F87BB1FFF73AFB79
:101E70004FF4D07101FB0641D1E955321A440132C9
:101E8000D1F85031B0FBF3F3B3FBF2F34345CFD3BA
:101E9000CCE730460122BDE8F843022100F01EBC29
:101EA00003F03AFAD4F89C31C4F898010133C4F82D
:101EB0009C31BDE8F88300BF7803002038B5174C8B
:101EC0004FF4D07303FB004494F870312BB1D4F875
:101ED000383194F871210BB16AB138BD002AFCD0B9
:101EE00005460F4984F8713102F006F92846BDE82D
:101EF000384000F0D5BC01230A4984F8713102F062
:101F0000FBF80721204603F0ABFD204603F0D6FC8A
:101F10002046BDE8384003F0B9BC00BF780300207C
:101F2000509800083098000838B51F4C94F870316C
:101F30004BB1D4F88C2132B1D4F890319A4203D904
:101F40000133C4F8903138BDD4E9603000FB03F5AB
:101F5000164B6D09A3FB0535ED0940F2654303FB04
:101F600005F5134BB5FBF2F59D4213D842F20F7302
:101F70009D4211D90F4BA3FB0535C5F347352946C3
:101F8000002002F095F80023C4F8803184F88851CD
:101F90000123D6E76325F2E794F88851002DF2D0AB
:101FA00000210D46EBE700BF78030020C55A7C0AEC
:101FB0003F420F005917B7D138B54FF4D075284CB0
:101FC00005FB00F004EB000C9CF87051002D45D18E
:101FD000551E39B31F2D3FD8591E1F293CD80499CF
:101FE00001390F2938D8059901390F2934D8CCE99E
:101FF0005823049BCCF8683100F5B070059BCCF8F1
:102000006C310444FFF76EFAD4E9012515492368C1
:10201000B0FBF3F32A440132B3FBF2F38B421BD83B
:10202000022038BDB5F5007F16D2591EFF2913D8FE
:10203000049901397F290FD8059901397F290BD8D7
:10204000CCE95423049BCCF8583100F5A870059BCB
:10205000CCF85C310444D5E73D2038BD342038BD90
:1020600078030020404B4C00354B1B5CDB063CD515
:102070002DE9F04F334D4FF4D07303FB0053B3B051
:10208000DB68044603BB6E464FF4D07704FB07F7CA
:1020900007F5A8722A442C49304600F0BFFE3046AE
:1020A000FEF7CEFB07F5B0722A443D442749304481
:1020B00000F0B4FED5F86071C7B93146204602F091
:1020C0001BF833B0BDE8F08F013B032B96BF204ACD
:1020D000204A52F8232020496E463046FEF7F2F897
:1020E0003146204602F008F8CEE770473046FEF74A
:1020F000A7FBD5F850B1194DDFF864A0DFF8649064
:1021000006EB000E844600F111080FCD46F80C00D6
:10211000CEF80C302B88CEF80410CEF80820BB4542
:1021200014BF51464946AEF8103006EB0800FEF7E2
:10213000EBF83146204601F0DFFF33B0BDE8F08F09
:1021400018050020780300209C980008A498000837
:10215000589A00087898000888980008AC980008F9
:1021600084980008809800082DE9F043AC4D4FF4A6
:10217000D07600FB06F6AF19C1B097F8703113B9ED
:1021800041B0BDE8F083044688464022002117A8EC
:10219000FEF7C2FB03A9384603F00EFDF0B9A14BD0
:1021A0001B5D980703D50B9B002B40F02D814FF44E
:1021B000D07303FB0453DA68002A00F09C804FF4CC
:1021C000D07303FB04532046D3F89C21002AC4BFDC
:1021D00002F1FF32C3E9668200F048FC17AB0DAA9A
:1021E0004021384603F04CFC002800F0CB8017ABB0
:1021F0000DAA4121384603F043FCA0B94FF4D07337
:1022000003FB0453D3F88C21002A40F08B804FF459
:10221000D07303FB04532046D3F880111144C3F854
:10222000801100F047FC4FF4D07909FB04F955F810
:1022300009301A6DD10400F1DC801A6D520700F1EB
:10224000CB801B6D9B0600F1908006F59276A91954
:10225000384603F003FD4FF4D07303FB0453D3F867
:102260009C21002A05DDD3F8982102F5FA72424537
:1022700064D94FF4D07303FB045393F873211AB954
:1022800093F87021002A69D14FF4D07303FB0455F1
:1022900095F87431002B7FF473AFD5F89431002B8F
:1022A0003FF46EAFD5F84C219342BFF469AF7E2A5C
:1022B0003FF666AF012385F87431FFF713F95A4BE7
:1022C00098427FF65DAFD5F89431D5F84C21D21AFB
:1022D000564B4FF47A75A3FB00139B0C544905FB36
:1022E00002F227A8B2FBF3F2FDF7ECFF27A9204684
:1022F00001F002FF44E7D3F88C0148B1089B019339
:10230000099B00930699DDE904323846FFF712FB7A
:102310004FF4D07303FB0453D3F880210244C3F875
:1023200080214CE7129B0193139B00931099DDE9E8
:102330000E323846FFF7FEFA024668E7002607210C
:102340003846C3F89C6103F08BFB204602F052F83C
:1023500032461021204600F0C1F98AE701222046CA
:1023600083F87321FFF780FE8EE7002201212046CB
:1023700000F0B4F94FF4D07304FB03F32022EB58C0
:102380001A6562E7FFF7C0F8149B17AA43EA0043F7
:102390000DA92046149302F027FA4FF4D07303FBE3
:1023A0000453D3F88C2152B1129B0193139B0093D9
:1023B0001099DDE90E323846FFF7BCFA02464FF4B9
:1023C000D07303FB04532046D3F880111144C3F8A3
:1023D000801100F06FFB0AE700220121204600F087
:1023E0007DF94FF4D07304FB03F30422EB581A6514
:1023F00027E700220221204600F070F955F8093045
:102400004FF480521A6518E7FFF77EF80A9B03A97C
:1024100043EA004320460A9302F012FCC7E600BFDD
:1024200078030020180500203F420F0083DE1B4385
:10243000C09800082DE9F041434C4FF4D07E0EFBCC
:1024400000FE04EB0E05D5E95E8708EB070CBCF136
:10245000070F19DC002940F2FF7618BF6FF06046C5
:10246000964211D39E420FD395F87051CDB1BCF175
:10247000010F06D1A7F10107B7FA87F77F098F424D
:1024800005D03420BDE8F0813D20BDE8F0810EF597
:10249000BC7EA64400260027CEE900674FF0000866
:1024A000C4460CEB4C0CE1B14FF4D07100FB01F1D0
:1024B00001EBCC0C2144A444CCE91D23D1F87C31A0
:1024C000CCF868300133C1F87C314FF08043CCF850
:1024D000643002260123CCE91B63CDB90220BDE89C
:1024E000F0814FF4D07600FB06F606EBCC0CA4444A
:1024F0002644CCE91D2308F10103C6F878310222F5
:102500000123CCE91B23CCF86410CCF86880E4E705
:102510004FF4D07303FB00F02718D7E95E631E4425
:10252000002EDBDD64300444002504E00135AE42BA
:1025300004F11804D2D02146384603F0FBF80028F5
:10254000F4D03520A1E700BF780300204FF4D0720B
:10255000084B02FB00F01A1892F8702142B900F5FE
:10256000BC70184400220023C0E9002302207047F9
:1025700034207047780300203620704738B50C4B64
:1025800053F82030002B11DD0D460A4904462A4637
:1025900051F8200099B204F0BDFA074B4FF4D07205
:1025A00002FB0433012083F8725138BD002038BD8E
:1025B000580000205C00002078030020084B53F8EE
:1025C0002030002B09DD074B4FF4D07202FB0033A3
:1025D000012093F872310B7070470020704700BFE4
:1025E0005800002078030020642908D8054B4FF4D8
:1025F000D07202FB00330220C3F88C1170473D20DB
:10260000704700BF78030020014B93F870017047BA
:1026100078030020034B4FF4D07202FB003393F891
:102620007001704778030020054B4FF4D07202FB15
:102630000033D3F83001003818BF0120704700BFC5
:1026400078030020054B4FF4D07202FB0033D3F81F
:102650006001003818BF0120704700BF78030020D8
:102660000A4B4FF4D07202FB003090F870314BB13E
:10267000C368022B08D0D0F83831002B14BF3820A3
:1026800002207047332070473920704778030020BC
:1026900008B5054B4FF4D07202FB003003F018FB75
:1026A000003818BF012008BD78030020024B4FF40A
:1026B000D07202FB0030704778030020064900EB1F
:1026C000800001EB8002800000230B50C2E901333F
:1026D000C2E90333704700BF1C050020094B00EB23
:1026E000800000B54FEA800E03EB800090F809C02F
:1026F00041EA0C01417212B1012203F80E205DF88B
:1027000004FB00BF1C050020034A1421082301FB21
:1027100000301044704700BF1C0500202DE9F04F29
:102720005D4B1B5C1B0793B004D40025284613B0F7
:10273000BDE8F08F04460F46FFF76CFF0546002802
:10274000F3D02046FFF7B2FF07A903F087FA20462F
:10275000FFF7ACFF03A903F0A9FA0B9B4F4E4FEA1A
:1027600084082BB104EB840306EB830310221A7256
:102770000A9A0C9B002A3AD1002B40D108EB0403A3
:1027800006EB83031A7A1AB99A7B0AB101225A73AB
:1027900008EB040306EB8303039ADA729A7A04992E
:1027A00019736AB9089A12B1072A18BF9A72079B5F
:1027B00033B1072B04D008EB040206EB82029372BC
:1027C00008EB0403990016F8232006EB8309EAB10D
:1027D00000237354A04406EB8806B068B389C6F89A
:1027E0000E0028467760738213B0BDE8F08F08EBC7
:1027F000040206EB820220211172002BC8D008EBE4
:10280000040306EB830330221A72C1E704EB840A47
:102810004FEA8A0A0AF1080306EB030B0621584621
:10282000019300F0BFFA019B20B199F80D20002A16
:102830003FF47BAF08EB040206EB8202117A3029E9
:1028400025D008EB040206EB82025268BA1A632A0A
:102850007FF66BAF0AF10E0AF15A36F80A30994248
:10286000B244B7D1BBF80210BAF8023099420BF16A
:10287000020B0AF1020AADD1BBF80210BAF802301D
:102880009942A7D140F6B7339A42A3D84DE7927B3D
:10289000302A9FD1D5E700BF180500201C05002075
:1028A000044A1421082301FB00308118002313502F
:1028B0008B8070471C0500202DE9F0411D4DDFF88D
:1028C00078802A68002386B001219A42CDE901135D
:1028D000CDE903336E4605DBD8F80000009231469F
:1028E00003F03CFF154C2368002B1CDA144F298899
:1028F000D8F80000002204F00DF921883868002281
:1029000004F008F9042431464FF09040009403F09D
:1029100025FF00224FF09040214604F0FBF80120F3
:1029200006B0BDE8F081064F00933868314603F0E9
:1029300015FFDCE770000020740000207800002004
:102940007C00002008B5084A084B1188186801224D
:1029500004F0E0F8064A074B118818680122BDE828
:10296000084004F0D7B800BF7000002074000020B9
:10297000780000207C0000202DE9F041DFF84C8039
:10298000134F144E144D0824B8F800103868002274
:1029900004F0C0F831882868012204F0BBF84B200D
:1029A00002F0C0FCB8F800103868012204F0B2F858
:1029B00031882868002204F0ADF84B2002F0B2FC08
:1029C000631E13F0FF04DFD1BDE8F081700000202A
:1029D00074000020780000207C00002070B5124EAA
:1029E00006EB4016337F8B421CD005460C463177F0
:1029F00002F092FC0D4B33F825100D4B84F00104CE
:102A000050307061224653F8250004F083F8094ADB
:102A1000094B32F8251053F825002246BDE87040D6
:102A200004F078B870BD00BF3005002070000020B1
:102A300074000020780000207C000020084B03EB8D
:102A400040130A461B7F03B170470649064B31F815
:102A5000201053F8200082F0010204F05BB800BFA0
:102A600030050020780000207C00002070B50E4C5E
:102A700004EB4014237F0BB9666806B170BD0546B0
:102A800002F04AFCE368C01A2828F7D9074B084A25
:102A900053F8250032F82510324604F03BF802F0D6
:102AA0003BFC606070BD00BF300500207C00002052
:102AB000780000202DE9F041104E06EB40152B7FE9
:102AC0002BB9470156F80780B8F1000F01D0BDE8D7
:102AD000F081044602F020FCAB68C01A2828F6D921
:102AE000074B33F82410074B424653F8240004F0F8
:102AF00011F802F011FCF051E9E700BF30050020A9
:102B000070000020740000202DE9F843554E06EBBC
:102B1000401504462B7F884623B16B698B424CD904
:102B2000BDE8F8834701FFF7EFFD0378302B2DD088
:102B30002046FFF7E9FD90F80190B9F1000F25D18B
:102B40002B7C002B5CD1F359F51923B1F359A8EB79
:102B500003030F2B69D8F5196B6823B16B68A8EBD9
:102B600003030F2B6FD82046FFF754FD0028D7D161
:102B70003E44327F002AD3D13B4B3C4953F82400DA
:102B800031F82410BDE8F84303F0C4BF384B394A8C
:102B900053F8240032F82410002203F0BBFF324B1C
:102BA000324A53F8240032F824103744002203F04C
:102BB000B1FF01233B74BDE8F883AB692B492A4878
:102BC00031F8241050F82400013303F00302013AD5
:102BD00018BF0122AB6103F09DFFAA69244B254970
:102BE00053F8240031F8241002F00302033A18BF0E
:102BF000012203F08FFF6B6950336B61BDE8F883EE
:102C00001C4B33F824101A4B012253F8240003F014
:102C100081FF164B33F82410134B012253F8240084
:102C200003F078FF85F810908DE7124B33F82410ED
:102C30000F4B012253F8240003F06CFF0023F351E3
:102C4000C5F8088087E7094B33F82410064B0122AA
:102C500053F8240003F05EFF0023C5F80C806B607E
:102C600081E700BF300500207C00002078000020B4
:102C7000740000207000002008B5FFF76FF80320F3
:102C8000FEF748FC022802D1104B01221A700220E4
:102C9000FEF76EFC022802D0362800D008BD0B4B90
:102CA0001B7873B902F038FB094B1860FEF704FC7F
:102CB0000138C0B2012806D8064B074A1A60022024
:102CC00008BD3C2008BD362008BD00BF50050020CF
:102CD00054050020580500200000FF1F70B51A4C55
:102CE00023687BB3194B1B68C01AB0F5967F29D3B4
:102CF0004FF0E02300251D615D619D6172B64FF0CC
:102D0000FF32C3F88021C3F88022C3F88421C3F8BE
:102D10008422C3F88821C3F88822C3F88C21C3F821
:102D20008C2202F099FA04F075FF094A2368936037
:102D30001A6825605B6882F30888BFF36F8FBDE86F
:102D40007040184770BD00BF580500205405002092
:102D500000ED00E030B40B4A0B4B4FF400704FF421
:102D60008071C2E9000180208021C2E90201202493
:102D7000202510201021C3E90045C3E9020130BC21
:102D8000704700BF7005002060050020034A044B17
:102D900000280CBF10461846704700BF7005002081
:102DA0006005002000290BDD0139431E084401E0C5
:102DB000834205D013F8012F002AF9D00020704774
:102DC00001207047082807D9093806289ABF034B05
:102DD00018564FF0FF30704740B27047689A0008AD
:102DE00030280DD820280FD818280BD814280DD833
:102DF00010280DD80C280DD808280DD840B27047DF
:102E00000F2070470D2070470E2070470C20704730
:102E10000B2070470A20704709207047F0B51368EF
:102E200085B00E46002B4FD05368144692684FF47D
:102E30007A7503FB0555134401330746B5FBF3F5DB
:102E4000FEF750FBD4E9012323491A4401322368D9
:102E5000B0FBF3F3B3FBF2F38B4215D8B3F57A7FF3
:102E600025D21E4A1E4C00923246A4FB0564E4089B
:102E7000019404EB8404A5EB44051A4902953846F5
:102E8000FDF720FA05B0F0BD174A41F2C60103FB79
:102E900002F2B1EBB21F0AD301F1864101F5DE1156
:102EA00001F6BD51A1FB0331104A8B0CDAE7104A41
:102EB000104903FB02F2B1EBF20FD2D30E490F4AD5
:102EC000A1FB03318B09CDE70D49324605B0BDE8C2
:102ED000F040FDF7F7B900BF3F420F0078990008B6
:102EE000CDCCCCCC409900083961C2682899000843
:102EF000D578E92637894100D34D62101099000832
:102F00002C99000830B5037803F06003202B89B0BA
:102F1000044625D0402B23D043B1802000F0F4FCA0
:102F2000002000F0F1FC002009B030BD4378092BEF
:102F3000F3D801A252F823F09F2F0008C72F0008F2
:102F40001B2F0008E52F00081B2F0008F72F000893
:102F5000313000081B2F0008693000086F2F00086F
:102F6000A14B20469B689847002009B030BD80786F
:102F70009E4C01282070D0D89D4D95F89C32022B94
:102F800000F00F81032B00F0FC80802000F0BCFCDF
:102F9000002000F0B9FC207800F0A4FAC3E79448C0
:102FA00090F89C32013B022BB7D8E1880229B4D1BA
:102FB000D0F8A032003B18BF01235B0040F80C3F63
:102FC00000F024FAAFE78A4A92F89C32013B022BC8
:102FD000A3D84388012BA6D10023C2F8A03200F069
:102FE00045FAA0E74388012B9DD1814AC2F8A0325F
:102FF00000F03CFA97E78388002B8ED1C388002B22
:103000008BD143887F2B88D8794D95F89C22032A51
:1030100083D0DCB2204685F89E4200F0A5FC00F08B
:1030200025FA002C00F0D480022385F89C327AE740
:103030004088030A0022022BADF80A2000F09C8091
:10304000032B2AD0012B7FF468AF12236948ADF817
:103050000A30E1880029CBD0994228BF1946ADF843
:103060000A1000F0D3F95EE7C18801297FF455AF5B
:103070005F4890F89C32022B08D8002B3FF44DAFEC
:10308000002340F8083F00F0C1F94CE7032B7FF420
:1030900044AF043000F0BAF945E7C0B2032800F2AB
:1030A0009B80DFE800F04E532F025349D1F8900582
:1030B000D1F89825D1F8943550490225024400955D
:1030C00003A8FDF7FFF803A8FDF7BAFB431C4C4A21
:1030D0009DF80C005B009BB20321ADF80A30137021
:1030E000517068B129460DF10C0C00255054481C54
:1030F000C0B2023115541CF8010FC9B20028F5D135
:103100003F48A6E740213E4AADF80A104FF45073FD
:103110003C491380002543231354431CDBB2023087
:10312000D55411F8013FC0B2002BF5D13448E188E5
:1031300000293FF45DAFBDF80A30002B3FF4F3AE39
:103140008AE704233048ADF80A3082E72C4A2F483A
:103150003A2140F23A33ADF80A1013804521022398
:103160000025D154591CC9B20233555410F8011F1F
:10317000DBB20029F5D1D9E725488378ADF80A30CC
:10318000D5E7E0B1686801283FF432AFC0B200F083
:10319000A9F92078686000F099F902287FF428AF37
:1031A000BBE600283FF424AF01200323686085F8C4
:1031B0009C3200F08BF902287FF41AAFADE60223AF
:1031C00085F89C32686000F08DF900F04FF9AAE6AE
:1031D000012385F89C32A6E60DF10A0101F0AEFF4D
:1031E00000283FF49AAEA2E7A40100208005002049
:1031F00084070020900100200070FF1F9C990008A8
:10320000840500207C990008800000205C9900085B
:103210005C01002010B503785A0604460BD503F074
:103220006002402A07D0802000F06EFB002000F0F2
:103230006BFB002010BD0A4B93F89C32013B022B24
:10324000F1D82379012BEED8064B20469B6898478E
:10325000E388002BEDD10028EBD100F007F9E8E777
:1032600084070020A401002038B50378828803F089
:103270006003202B38D0402B36D03BB1802000F0AB
:1032800043FB002000F040FB002038BD4378012BB9
:10329000D4B23FD0032B2CD0002BEFD13C4B93F872
:1032A0009C1202294ED00329E8D104F00F01120626
:1032B00001EB810155D403EB8101D1F85821002A9B
:1032C000DCD0142202FB043303F5AA75002C56D07F
:1032D000204600F035FB002858D001232B60022146
:1032E000284600F093F8CFE72A4B9B6898470020C8
:1032F00038BD274B93F89C32022B1AD0032BBDD13B
:1033000043889BB9650611D0C3887BB9204600F07D
:10331000FBFA0BE01E4B93F89C32022B09D0032BD7
:10332000ACD14388002BAFD161062BD100F09EF8C1
:10333000AAE76006A2D0204600F0E6FA802000F05E
:10334000E3FAA1E714F07F0498D103F5AA7012F014
:10335000800F03F1140318BF1846046000F056F8FC
:1033600092E703EB81029269002A87D004F07F0282
:10337000013202EB8202802C03EB8205A8D10023EC
:103380002B60ACE7204600F0CDFACFE72860A6E737
:1033900084070020A40100200B7803704B78437051
:1033A0004B8843808B888380CB88C380704700BF65
:1033B00008B5802000F0A8FABDE80840002000F021
:1033C000A3BA00BFE8B170B50E460446FDF738FA5F
:1033D000431C0D4D5B009BB2032233802B706A703F
:1033E000217861B12046022300245A1CD2B2E9544C
:1033F000AC5410F8011F0233DBB20029F5D10248AA
:1034000070BD0148704700BF8405002010B5064B11
:103410000A46022401460020C3E90722C3F8944269
:1034200000F0B0FA002010BD8407002008B50A465D
:103430000146002000F0A6FA002008BD10B5064B9A
:103440000A46032401460020C3E95722C3F89442E8
:1034500000F0A8FA002010BD8407002008B50A4635
:103460000146002000F09EFA002008BD10B50022A1
:10347000044B042411461046C3F8944200F082FA2B
:10348000002010BD8407002010B50022044B052445
:1034900011461046C3F8944200F084FA002010BD93
:1034A00084070020084B10B5012200241C7083F80B
:1034B0009C2200F0C9F908B1204610BD00F0FAF9CD
:1034C000B0FA80F0400910BD8407002008B5044B15
:1034D0001B689847003818BF0120400008BD00BF96
:1034E000A401002008B5024B5B689847002008BD86
:1034F000A4010020014610B51448FFF74DFF144801
:1035000090F8A422B0F8AA12012402F01F03A342EB
:10351000C0E9A5410ED0022B06D08BB900F5297069
:10352000FFF7F0FC002010BD00F52970FFF79CFEAE
:10353000002010BD00F52970FFF76CFE002010BDC3
:1035400002F0800000F0E0F9002010BD280A002001
:103550008407002010B560B90A461A49D1F8944290
:10356000032C13D0052C0DD1C1F8940200F0CCF936
:1035700008E0154B9B693BB1124A92F89C22032A42
:1035800002D19847002010BD022010BDD1E958306B
:1035900083420AD91B1A9842C1F8603194BF81B2A4
:1035A00099B21046FFF75AFFECE7074B1B691BB1B6
:1035B00091F89C22032A02D0FFF758FFE2E79847D0
:1035C000FAE700BF84070020A401002038B598B9AD
:1035D0002C4DD5F89422022A1BD032F0040302D1DC
:1035E000802000F091F995F89F32012B02D1002341
:1035F00085F89F32002038BD234B5B693BB1214ADF
:1036000092F89C22032A02D198470020F3E7022077
:1036100038BD0B46D5E908218A4223D8EB69B3FBB4
:10362000F1F401FB143484B999420ED8D5F89822EC
:1036300093420AD22146FFF7F9FE22462146204650
:10364000C5F8984200F0AEF9CDE70F4BDB681BB12F
:1036500095F89C22032A12D0802000F055F9FFF73C
:1036600013FFC0E7521A044691B218462A62FFF7C8
:10367000DDFE22462146204600F094F9B3E7984744
:10368000EAE700BF84070020A401002070B50021F4
:103690000F4C40264022084600F018F9012532461A
:1036A00000218020C4F85851C4F8646100F00EF97C
:1036B000084B84F89C520020A5616662C4F894020D
:1036C0006060C4F8A0025B68BDE87040184700BFA6
:1036D00084070020A4010020014B187400207047CB
:1036E00084070020044B042293F89C1283F89D1257
:1036F00083F89C220020704784070020054B93F834
:103700009C22042A04BF93F89D2283F89C22002067
:10371000704700BF8407002008B5074B93F89C3220
:10372000032B01D0002008BD044BDB69002BF9D02E
:103730009847002008BD00BF84070020A401002096
:103740000E4A0F4B12689A4200D0704703F5DA33E5
:1037500000B5986D40F4000098659B6D83B003F44C
:1037600000030193002202211420019B01F00AFEB4
:10377000142003B05DF804EB01F040BE340A0020D1
:10378000005C004008B501F0F5FC00B108BDBDE8E3
:1037900008400148FFF7AEBECC0C0020044B01EB03
:1037A000810203EBC2030846D3F86411FFF7D2BECF
:1037B000340A0020044B01EB810203EBC2030846EC
:1037C000596AFFF703BF00BF340A0020FFF7A4BF08
:1037D00008B50120FFF780FFBDE80840FFF756BF9E
:1037E00008B5084B01221A70FEF7B8FAFFF77AFF06
:1037F000054B5B7A23B1054A136943F00603136155
:1038000008BD00BF300A0020340A002000ED00E0AF
:1038100008B5074B5B7A23B1064A136923F0060308
:103820001361FFF76BFF044B00221A7008BD00BF45
:10383000340A002000ED00E0300A0020014B187827
:10384000704700BF300A002008B506480649074AFD
:10385000012380E80E0003F063F9BDE8084001F0A1
:103860003FBC00BF340A0020005C00400802000298
:1038700070B515460A462E6801461C469AB1334477
:103880002B600B4843EA0643012204F019F92B6828
:10389000E01D184420F00700B0F5806F28608CBF51
:1038A0000020012070BD3346014804F009F9EEE71D
:1038B000340A002008B5044803F01CFA18B10228A5
:1038C0000CBF0120022008BD340A0020844608B540
:1038D00005480B46614603F0D3FF18B102280CBF20
:1038E0000120022008BD00BF340A002008B50146AF
:1038F000044804F001F818B102280CBF012002208E
:1039000008BD00BF340A002008B50146044804F091
:103910005FF818B102280CBF0120022008BD00BFCB
:10392000340A002008B50146044804F08DF818B1A7
:1039300002280CBF0120022008BD00BF340A00206D
:103940000206084B06D400EB800003EBC00393F89B
:103950005201704700F07F0000EB800003EBC003D2
:10396000987C7047340A002008B50146044803F0EB
:1039700073FF18B102280CBF0120022008BD00BF50
:10398000340A0020844608B5054813460A466146B5
:1039900004F000F818B102280CBF0120022008BD75
:1039A000340A0020844608B5054813460A46614695
:1039B00003F0D6FF18B102280CBF0120022008BD79
:1039C000340A00200D4885460D480E490E4A002352
:1039D00002E0D458C4500433C4188C42F9D30B4AC3
:1039E0000B4C002301E013600432A242FBD3FDF72D
:1039F00009FDFCF7E7FEFDF7ADFCFEE700800020C7
:103A000000000020FC010020909A00080002002025
:103A1000FC580020FEE70000374B70B50F221A70EB
:103A200001F092FC354B364A1E68364C5460034612
:103A30001C0E14700020344CD0704EF63B554EF2E4
:103A40003B518642C8BF29462160190C51701B0AA0
:103A50004FF4007193709160FFF798F90646FDF7F7
:103A600041FD01257368B1683268E360C4E901056E
:103A7000F368A3612846C4E90451C4E907526562AA
:103A8000FFF784F9214B62685A60A4469D625CF896
:103A9000082B1A604268C3E90B2582685A630268E2
:103AA0001A64C268DD635D6403F108049A63BCE8CC
:103AB0000F000FC49CE80F0084E80F0001F048FCE1
:103AC000134B144A144C1D4625F8020B03CA1288E6
:103AD000C3F8020069602A8107CCC3F81B00586B49
:103AE0002488C3F81F1040F00100C3F82320A3F876
:103AF0002740586370BD00BF180500205800002003
:103B000028150020180626007C15002034150020FA
:103B1000F0140020AC990008B8990008F0B543787B
:103B2000162B93B000F09280132B044634D9954A9B
:103B30001278002A00F086801B2B33D8924F012583
:103B40009D402F4042D115F0406500F0168140881D
:103B5000FDF714FE0546002800F083800020FEF7E4
:103B600059FD38B3894E0223337094F900206378ED
:103B7000002A2EDB1B2B20D8DFE803F07784911F6F
:103B80001F1F1F771F1F841F771F1F1F1F1F1F1F30
:103B90001F881F868F1F1F8A7B49012202FA03F3A9
:103BA0000B4213D165886DB900202F46FEF732FD18
:103BB0000028D7D1FEF77EFFD4E7312333700020F1
:103BC00013B0F0BD714E32233370F8E700252F4655
:103BD000C4E70022043BCDE900220292162BECD868
:103BE00001A252F823F000BFA33C00082F3D0008BB
:103BF0000B3D0008BB3B0008BB3B0008BB3B00087B
:103C0000BB3B0008293D0008BB3B0008173D0008EE
:103C1000F33C0008BB3B0008BB3B0008BB3B000873
:103C2000BB3B0008BB3B0008053D0008BB3B000850
:103C3000BB3B0008BB3B0008BB3B0008CF3C000877
:103C4000B53C0008514B31221A70B8E74F4B0121A7
:103C50001B788DF81C3007A8FFF7D8FB012013B0A4
:103C6000F0BD4A4E3D233370A9E70422E388934216
:103C7000A9D320686168464B03C34648E188FFF733
:103C8000DDFBEBE71422F1E70122EFE71122EDE77C
:103C9000E388B3F5FA6FECD9E4E70C22E6E70822F3
:103CA000E4E73D482821E388994228BF1946FFF7F9
:103CB000ADFBD3E728464FF6FF7330F8021B99425D
:103CC0003BD0B1F5FA6F28BF4FF4FA61EBE7012F53
:103CD0007FF479AF0220FDF71DFC58B3A0F1020379
:103CE000B3FA83F35B095B00ADF80C30022103A843
:103CF000D9E70020FEF78EFC08BB042300930C21BB
:103D00006846D0E725483821CDE7FDF7F1FB07905D
:103D1000042107A8C7E703A90020FEF74FFC48B11C
:103D20009DF80C300793F3E71D484821BBE71D4879
:103D30000C21B8E73623337041E70021B3E70020B8
:103D4000FEF7B4FC07A901F089FF0020FEF7AEFCE6
:103D500003A901F0ABFFDDE903210B9BCDE90112C3
:103D60000BB1012300930A9B0BB1022300930C9B20
:103D7000002BC4D003230093C1E7192B7FF412AFAB
:103D80008778EBE6DC5800206100100184000020F9
:103D9000100D0020180D00207C150020F0140020CC
:103DA000341500202815002030B5A64B58885978C6
:103DB00085B0C4B21B2917D8DFE801F0BB182D1657
:103DC00016161669161618167416161616161616E0
:103DD000168516AA0E1616B39B4B5A88012A00F0B8
:103DE00022819A4B32221A7005B030BD964DD5E92A
:103DF00000232046EC681344A1F10A012A690194CA
:103E0000AC680094B1FA81F14909FEF7D5F88F4BFF
:103E1000187005B030BD8C4D2B68012BE1D800F037
:103E20008F80FEF7F1FB8A4900B908706B685A046D
:103E30004ABF01220A780A7003F0080100290BBF6B
:103E40008F208E20CF21CE210BBF4FF04F0C4FF093
:103E50004E0C4FF00F0E4FF00E0E13F0100F40F0FF
:103E6000EC807C4901F804E032B11A0448BF0855DF
:103E70000A7842F010020A702968012900F0EC80EB
:103E800039B9204605B0BDE83040FDF78DBF6E4B17
:103E90001968003918BF0121204605B0BDE830403F
:103EA000FEF79CBD684B1968A1F10101B1FA81F1DF
:103EB00020464909FEF762FB002895D1634B362264
:103EC0001A7005B030BD604D2B780E2B89D801A239
:103ED00052F823F0BB3F0008A53F00088F3F0008C1
:103EE000E33D0008E33D0008E33D0008E33D000832
:103EF000E33D0008E33D0008E33D00088B3F000878
:103F0000DF3F0008C73F000803400008693F000882
:103F10004D4B20461978FEF767FB4C4B187005B0E7
:103F200030BDDA884849FDF751FC484B187005B0A0
:103F300030BD454A12684BF6EF639A42BED153E753
:103F40002046FEF767FB002840F094806B68D90597
:103F50007FF567AF2046FEF775FB00287FF461AF61
:103F60003A4B3A221A703FE70123D5F80510D5F8ED
:103F70000120CDE902216A7AA97A019300932046B3
:103F8000FEF7FAFA314B18702EE70023EDE7D5F86B
:103F90000530D5F8012001212046FEF74BFA2B4BC6
:103FA000187021E7D5F80530D5F80120002120460A
:103FB000FEF740FA254B187016E72046FEF7C6FAC2
:103FC000224B187010E7D5F80510D5F80120CDE97F
:103FD000022100206A7AA97A01900123CEE7D5F860
:103FE0000510D5F80120CDE9022100236A7AA97ACB
:103FF0002046CDE900330123FEF7BEFA134B1870BB
:10400000F2E6D5F80510D5F80120CDE9022101230B
:1040100000206A7AA97ACDE900032046FEF7ACFABF
:104020000A4B1870E0E61B88052B7FF4DAAE0320FC
:10403000FDF79EFA054B1870D6E60846054901F8CB
:1040400004C011E7100D0020180D0020840000208E
:10405000DC5800201805002003F00202DB070DD514
:10406000002A14BF032102212046FDF721FD064B43
:104070001870B9E6044B34221A70B5E6003A18BF3E
:1040800001229100F0E700BF8400002010B5044633
:10409000FEF744FB20B92046BDE81040FDF70EBFF7
:1040A000204600F01BFE2046BDE81040FDF706BF8D
:1040B00038B50D4600F032FF044600F54C501C3078
:1040C00000F014FFB8B140F603730381857272B635
:1040D000BFF34F8FBFF36F8F04F5405204F54C547C
:1040E000D2F83033C2F830032C34C0E900431860F2
:1040F00062B6BFF36F8F38BD1E4B1B5CDB0601D46D
:104100000020704770B50E4600F008FF054600F528
:104110004C501C3000F0EAFE044628B33046FCF751
:104120008FFB4E28024621D8831CDBB223720E235C
:104130006372314604F10A00FCF712FE72B6BFF357
:104140004F8FBFF36F8F05F5405205F54C55D2F8F0
:104150003033C2F830432C35C4E900531C6062B6DA
:10416000BFF36F8F012070BD002070BD024E14227E
:104170001623DBE718050020C89900082DE9F04F49
:1041800001F54C5883B008F12C0872B6BFF34F8F7D
:10419000BFF36F8F01F54056D6F82C43A04500F0D1
:1041A000CA80002C00F0C780D4E900230F4653607A
:1041B00081461A6062B6BFF36F8F674B1B78002B86
:1041C00078D072B6BFF34F8FBFF36F8FD6F82CB392
:1041D000D84500F0A58062B6BFF36F8F5F4A1256D4
:1041E000002A80F2A080BBF1000F00F09C8001F556
:1041F0004C5A0AF11C0A02254FF48852A946A6F827
:10420000342355460190C246214609F54C5011F819
:10421000088F3430424617FA80F0FCF7A1FD08EB16
:1042200009021FFA82F996F83423013286F8342302
:1042300072B6BFF34F8FBFF36F8FD6F82023C6F847
:104240002043C4E90052146062B6BFF36F8FBBF124
:10425000000F28D096F83423FA2A24D89BF8082097
:104260004A44B2F5006F1EDA72B6BFF34F8FBFF348
:104270006F8FD6F82C43A24563D01CB1D4E900124D
:104280004A60116062B6BFF36F8F72B6BFF34F8F93
:10429000BFF36F8FD6F82CB3DA4554D062B6BFF3B4
:1042A0006F8F002CB0D107F54C534D463433DDF8F9
:1042B00004902DE0A37C29489B07637CC35C4CBF22
:1042C0005022182203F040034CBF4C211421944685
:1042D000002B07F54C530D460CBF0A466546343398
:1042E00004F108011846FCF73BFD034672B6BFF324
:1042F0004F8FBFF36F8FD6F82023C6F8204307F502
:104300004C571C37C4E90072146062B6BFF36F8F5C
:104310002A461946484603B0BDE8F04F00F072BF88
:1043200062B6BFF36F8F214607F54C5311F8085F53
:1043300034332A46D6E762B6BFF36F8F03B0BDE8C9
:10434000F08F00249EE762B6BFF36F8F002CAAD0D7
:104350004FF0000B58E700BFDC5800201805002084
:10436000F0B4204F204EA7F11800A7F1080206F57F
:10437000405CC6E90100311DA7F10C03A7F1100450
:104380005A60CCF81413526001F5D85506F1700349
:104390000A46C3E90001194613606C33AB42F7D1FA
:1043A000CCF81813C1E900021160CCF81C3343F2B9
:1043B00030330E4AF7500E4B42F8047CC3E90144F7
:1043C000191D5C330A46C3E900411946136058338E
:1043D0008342F7D1CCF82013C1E90042F0BC116050
:1043E000704700BFD4480020A8150020D8480020FE
:1043F000A830002044F2343300FB03F370B51A4DAB
:1044000003F54C5203F54C54103206461434281D63
:104410002C448450024405F5D85C546003F54C529A
:104420002432A91803F54C5220329C448150024496
:1044300051600E4AD0581A1D2A442B44C3E901404A
:104440009E466C33634502600146104602F16C02E1
:10445000F4D144F2343303FB065543F21833E850E9
:10446000CEE90141086070BDA8150020C0480020B9
:1044700044F2343C2DE9F8430CFB00FC72B6BFF368
:104480004F8FBFF36F8F324C43F2143E04EB0C039B
:1044900053F80E30E644A64473454FD0002B4DD060
:1044A000D3E9006575602E6062B6BFF36F8F03F1CC
:1044B000080E01F120090F684E688D68D1F80C8054
:1044C000CEF80C8010314945CEF80070CEF804606B
:1044D000CEF808500EF1100EEDD10968CEF800109C
:1044E00002F1400803F12C01D2F800E0566895680B
:1044F000D768CF6010324245C1F800E04E608D6051
:1045000001F11001F0D172B6BFF34F8FBFF36F8F7F
:1045100044F2343202FB004243F228300CF54C5C8A
:10452000115813500CF1240C6444C3E900410B6092
:1045300062B6BFF36F8F0120BDE8F88362B6BFF3A8
:104540006F8F01220421FEF7C9F80020BDE8F8832F
:10455000A81500202DE9F0473E4B1B788AB0CBB15F
:104560004B780A2B5FD18846D1F803508F7891F8A9
:104570000790044618F8080B15F0804AA0F10800CF
:1045800063D0002857DD0E7A082E28BF08264FF08A
:10459000804A0BE04C7A002C51D14D6891F8009084
:1045A0008F7A0E7A01F10C0805F0804A0023CDE9DC
:1045B0000133CDE9053320464FF400030793FEF79E
:1045C00033F8002D4FEAC070BABF25F060454FF0B8
:1045D0008043C5F30A05CDF820900490B8BF01933D
:1045E0000095BAF1000F02D04FF000530293082E4D
:1045F0000AD8BA070AD44246694620460396FFF70E
:1046000037FF0AB0BDE8F08747F002072046FEF703
:1046100019F8A0B14FF4001306937B0744BF4FF481
:1046200080130593E7E701220221FEF757F80020E7
:104630000AB0BDE8F0874FF0804A0026B6E70122B5
:1046400002212046FEF74AF8F1E7FEF7C9FBC6B2A1
:10465000ACE700BFDC5800202DE9F04F4B7891B05B
:10466000102B059040F09F800B788946002B00F0BE
:10467000B2804FF0000A022588788C1C5646AB4663
:104680005DE062780A2A7ED1D4F80370E37903935F
:1046900017F0804204F1080394F802800493A0F11B
:1046A000080078D0002840F38B80257A082D28BF99
:1046B00008250195059D4FF080424FF400000D90B4
:1046C00028460292CDE90766CDE90B66FDF7ACFFFF
:1046D000002F039B029A0E934FEAC070BABF4FF0AF
:1046E000804327F06047C7F30A070A90B8BF0793D3
:1046F000069712B14FF000520892019B082B32D856
:1047000018F0020F31D1019B049A0993284606A99B
:10471000FFF7AEFE00285ED099F8002021780AF15C
:10472000010A5FFA8AFA52458B4454D919F80B00F2
:1047300000EB0B02B2F5006F09EB0B044EDC294BCA
:104740001A78002A9DD1657A002D31D123786768C7
:104750000393237A019304F10C0394F80A800493E1
:1047600007F08042A9E748F002082846FDF76AFFF3
:1047700060B34FF4001218F0040F0C921CBF4FF4FA
:1047800080120B92BFE701220221059811B0BDE80B
:10479000F04FFDF7A3BF0292FEF722FBC3B2059DC7
:1047A000029A019389E711B0BDE8F04FFFF7D2BE3E
:1047B00001220221284611B0BDE8F04FFDF78EBF5F
:1047C0000023059D01934FF0804276E701220221EC
:1047D0002846FDF783FF11B0BDE8F08F01220421C8
:1047E000D3E700BFDC5800202DE9F84F5C4B1C7864
:1047F00080460D469246002C65D05A4E44F2343223
:1048000002FB006672B6BFF34F8FBFF36F8F06F5E2
:10481000405906F54C52D9F81C431C3294424DD0F5
:10482000002C4BD0D4E900124A60116062B6BFF38D
:104830006F8FD5E90072B2F1804FAA6806BF27F0EA
:10484000604747F00047C7F30A07B2F1005FAA6963
:1048500008BF47F08047B2F5001F36D01B78287B91
:104860004FF0000B002B43D07A0071D501228AF85B
:1048700000000C23104623720C213B4B84F80AB035
:10488000617213F80830E969C4F80B705B06C4F86C
:104890000F1055D5514604F11300FCF761FA72B6BA
:1048A000BFF34F8FBFF36F8FD9F83033C9F8304360
:1048B00006F54C562C36C4E900631C6062B6BFF3A3
:1048C0006F8FBDE8F88F274E9CE76A691B78287BBD
:1048D000B2F5801F2A690BBF4FF00E0B4FF00A0B89
:1048E00006210221B2F1004F18BF8B46002BBBD12D
:1048F000E3744FF0FF33A36084F8118084F812B0A2
:10490000E760207404F114030AF1400CDAF80000A7
:10491000DAF80410DAF80820DAF80C70DF600AF12F
:10492000100AE245186059609A6003F11003EDD156
:10493000AB69B3F5001FEB690CBF6365E361AEE7DC
:1049400007302072514604F10F00FCF709FAA6E780
:10495000FEF738FAC0B200F10B03DBB202468AE779
:10496000DC580020A815002018050020DFF874C1CD
:104970002DE9F84F92461A469CF800305A4E804670
:104980000D461BB144F2343303FB006672B6BFF32D
:104990004F8FBFF36F8F06F5405906F54C53D9F88A
:1049A0001C431C339C424ED0002C4CD0D4E9001345
:1049B0004B60196062B6BFF36F8FD5E90073B3F136
:1049C000804FAB6806BF27F0604747F00047C7F34A
:1049D0000A07B3F1005FAB6908BF47F08047B3F542
:1049E000001F35D09CF80030287B4FF0000B002BC7
:1049F00042D07A006ED501228AF800000C231046BE
:104A000023720C21394B84F80AB0617213F8083014
:104A1000E969C4F80B705B06C4F80F1052D5514613
:104A200004F11300FCF79CF972B6BFF34F8FBFF38C
:104A30006F8FD9F83033C9F8304306F54C562C3611
:104A4000C4E900631C6062B6BFF36F8FBDE8F88FE6
:104A50006B69287BB3F5801F2B690BBF4FF00E0BE2
:104A60004FF00A0B06210221B3F1004F18BF8B460D
:104A70009CF80030002BBCD1E37484F8118084F8DA
:104A800012B0E7602074A26004F114030AF1400C34
:104A9000DAF80000DAF80410DAF80820DAF80C7016
:104AA000DF600AF1100AE245186059609A6003F16C
:104AB0001003EDD1AB69B3F5001FEB690CBF636563
:104AC000E361B1E707302072514604F10F00FCF7B3
:104AD00047F9A9E7FEF776F9C0B200F10B03DBB2A4
:104AE00002468DE7DC580020A8150020180500209C
:104AF0002DE9F04FDFF84091504E99F8003044F224
:104B0000343400FB04F48BB006EB040A0746002B98
:104B100014BF55463546FDF7BBFD04F54C5808F16A
:104B20001408B04490B372B6BFF34F8FBFF36F8FCA
:104B30000AF5405A04F54C54DAF824B324343444CA
:104B4000A34520D0BBF1000F1DD0DBE9002353604B
:104B50001A6062B6BFF36F8F3846FDF781FD0228F9
:104B60002FD0012202213846FDF7B8FD72B6BFF3FF
:104B70004F8FBFF36F8FDAF81833CAF818B3CBE949
:104B80000083C3F800B062B6BFF36F8F2B781BB9F8
:104B900029463846FFF7F2FA44F2343303FB07663E
:104BA00043F21433F358434537D005F5405305F528
:104BB0004C55D3F81C331C35AB4234D00BB0BDE898
:104BC000F08F0BF12C0422460BF108013846FDF75B
:104BD0001BF999F80030002BC8D1DBF80C30019399
:104BE000DBF810300293DBF814300393DBF8183055
:104BF0000493DBF81C300593DBF820300693DBF8D8
:104C000008300093FCF774FCDBF82830079022464C
:104C100069463846FFF7AAFEA8E700220421384675
:104C2000FDF75CFDC1E70022082138460BB0BDE866
:104C3000F04FFDF753BD00BFDC580020A815002041
:104C4000234B1B78002B42D070B544F23432214EF6
:104C500000FB02F2B31872B6BFF34F8FBFF36F8F32
:104C600003F5405E02F54C531C3306EB030CDEF8F3
:104C70001C33634527D033B3D3E900546C602560FF
:104C800062B6BFF36F8F40F607341C810C6A9C72CA
:104C9000C969C3F80B101049095C11F0400F14BF2B
:104CA00007210321197272B6BFF34F8FBFF36F8FC5
:104CB00002F54C52DEF83013CEF830332C32324449
:104CC000C3E900210B6062B6BFF36F8F70BD704700
:104CD000DC580020A8150020180500202DE9F84315
:104CE000DFF8FC917F4D99F8003006461BB144F285
:104CF000343303FB005572B6BFF34F8FBFF36F8F92
:104D000005F5405805F54C53D8F81C431C339C421C
:104D100051D0002C4FD0D4E9002353601A6062B602
:104D2000BFF36F8F5022002104F10800FBF7F4FD60
:104D300099F8003043BB3046FDF7E6FC0278202AA4
:104D400004F11407034628D0302A00F0C180102A4D
:104D500036D1C2781AB17A7842F008027A701A799C
:104D60001AB17A7842F004027A704FF0200E4FF4B4
:104D700000714FF0000C9A78013A052A74D8DFE8E8
:104D800002F06F81277B75283046FDF7BDFC027865
:104D9000202A04F10E070346D6D1C2781AB17A78D8
:104DA00042F020027A701A79002ADED07A7842F036
:104DB00010027A70D9E762B6BFF36F8FBDE8F8834F
:104DC0004279002AD1D07A7842F040027A70CCE75A
:104DD000714699F800005A78002859D1D00648BF8A
:104DE00041F0010112F0080F78786BD040F001001B
:104DF00078705A7812F0040F03D040F002007870F7
:104E00005A7841F00401B8787A71002856D0DA78DF
:104E1000BA711B7941F00801FB71082341F0005180
:104E200023744FF0FF33E1606674A360FCF760FB0E
:104E3000E06172B6BFF34F8FBFF36F8FD8F8303396
:104E4000C8F8304305F54C552C35C4E900531C60B7
:104E500062B6BFF36F8F3046BDE8F843FDF720BD63
:104E6000BA7842F00402BA706146B2E7BA7842F00A
:104E70000802BA706146ACE7BA7842F01002BA7024
:104E80006146A6E7BA7842F00202BA706146A0E72E
:104E90007A71DA78BA711B79FB7140F6125323816B
:104EA000C4F80A10FCF724FB0F4BC4F816009B5DF6
:104EB0005B06BED4237A043B2372BAE7DA78BA7170
:104EC0001B79A9E712F0040F97D100289BD098E72F
:104ED0004FF0600E4FF410714FF0400C4BE700BFE5
:104EE000DC580020A815002018050020034672B6E3
:104EF000BFF34F8FBFF36F8F0068834208D018B1A4
:104F0000D0E9002353601A6062B6BFF36F8F704719
:104F1000002062B6BFF36F8F704700BF024B44F2B0
:104F2000343202FB00307047A81500201649174B99
:104F300070B5012000244FF47F42087020461C7099
:104F40009A80FFF7EBFF124B047005461878114E5C
:104F5000114900F00F034022CC54337803F00F03C3
:104F6000CC540221FEF7B2FC307840220221FEF739
:104F7000ADFC05F56C5130784FF40062BDE870402F
:104F80003431FEF70FBD00BFDE580020E05800208E
:104F9000D0010020CC010020E858002008B5FEF721
:104FA00003FF002008BD00BF70B50E4A00F00F03DC
:104FB0000546D65C3046FFF7B1FF0B4B1B7800F57A
:104FC0006C54002B04F1340414BF304600202146F9
:104FD000FFF742FB4FF4006221462846FEF7E2FC51
:104FE000002070BDE8580020DC58002010B500F00B
:104FF0000F030A4A0446D05CFFF790FF437823B9B9
:1050000003F0FF020270002010BD00224270114622
:105010002046FEF7B7FC002010BD00BFE858002076
:1050200010B5074C23784BB1064B1878FEF75EFCA1
:10503000054B1878FEF75AFC00232370002010BDA2
:10504000DE580020D0010020CC01002038B50278C5
:1050500002F06003202B0CD0402B0AD00BB10020B3
:1050600038BD43780A2BFAD101211B48FEF7CEF94F
:10507000F5E78488012C19D102F07F02212A19D189
:105080004378032B22D0042B19D09BB9134D4FF436
:105090007F422B70AA80FDF7EFFD0228DFD03C286D
:1050A00017BF0A232C712B716871D8E7FEF736FD04
:1050B0000028D4D10020FEF77BF9002038BD074B33
:1050C00000214FF47F4219709A80C8E706210348F7
:1050D000FEF79CF9C3E700BFDD580020E058002030
:1050E00000B583B0382000210190402301AA084672
:1050F000FEF7BEFBB0B1402301AA00218020FEF7DD
:10510000B7FB78B10B4A40231078002101AAFEF7C3
:10511000AFFB38B1084A40231078012101AAFEF7FD
:10512000A7FB18B9022003B05DF804FB002003B010
:105130005DF804FBD0010020CC010020072808D82E
:10514000042803D80ED10848FEF73CB90748FEF7FB
:1051500039B9EE2806D108B50548FEF733F9202302
:10516000037408BD00207047F4990008E099000816
:10517000109A000838B51E4C1E481F49FEF70CF95E
:1051800094F8A40210F01E0004D194F8A532202B4C
:1051900002D038BD002038BDB4F8A632012BF8D8B3
:1051A000B4F8A832042B1AD0052BF2D10146FEF731
:1051B00009F9124992220546FBF7D2FDB4F8A6324E
:1051C000012B04BF322385F84630B4F8AA12922985
:1051D000284628BF9221FEF719F9012038BDB4F8FE
:1051E000AA120748402928BF4021FEF70FF9F4E72B
:1051F00084070020280A0020CC0C00208800002012
:105200001C010020104B70B51D780E46144695B158
:105210000546FFF783FE012303709CB114F03F0F96
:1052200018BF00234370094B2246585D3146BDE844
:105230007040FEF7A7BB2846FFF770FE01230370FE
:10524000002CEBD12346EDE7DC580020D0010020F4
:10525000704700BF704700BF10B5094B4FF0FF32D9
:1052600000249A639C631A641C649A629C62DA62EA
:10527000DC621A631C63FFF7EDFF204610BD00BF20
:105280000010024038B50F4B1B680BB9012038BD28
:105290000D494FF47A720546B2FBF3F30868B0FB90
:1052A000F3F000F0B9F804460028EFD10F2DEDD847
:1052B000024629464FF0FF3000F064F8034B2046C9
:1052C0001D6038BDD401002054000020D80100200A
:1052D0000A4A136823F4806310B50320136000F0BA
:1052E0003FF80020FFF7CEFF10B10124204610BD8B
:1052F0000446FFF7ADFF204610BD00BF002002406E
:10530000034A0449136809680B441360704700BFDF
:10531000F8580020D4010020014B1868704700BFE6
:10532000F858002038B50446FFF7F6FF631C054621
:1053300002D0044B1B681C44FFF7EEFF401BA04249
:10534000FAD338BDD401002000487047000502019F
:10535000024B1868C0F30B00704700BF002004E048
:105360000749CA6803024FF6FF0003F4E0630240F6
:10537000134343F0BF6343F40033CB60704700BF77
:1053800000ED00E01B4BDB68C3F3022300B5C3F163
:10539000070EBEF1040F03F1040C28BF4FF0040EFA
:1053A000BCF1060F1CD9A3F1030C4FF0FF3303FA35
:1053B0000CF322EA03024FF0FF3303FA0EF321EA63
:1053C000030303FA0CF313431B010028DBB20ADBCF
:1053D00000F1604000F5614080F800335DF804FBA7
:1053E00000229446E7E7044A00F00F0002441376D7
:1053F0005DF804FB00ED00E0FCEC00E0002807DBBA
:10540000044A4109012300F01F00834042F8213083
:10541000704700BF00E100E00138B0F1807F01D3A8
:105420000120704710B44FF0E023064C58614FF054
:10543000F00C84F823C00022072110469A6110BCAA
:105440001961704700ED00E0704700BF08B5FFF735
:10545000FBFF08BD704700BF002800F0D98038B5B9
:1054600090F85C30044603F0FF02002B71D02268F4
:10547000936923F010039361FFF74EFF054604E0A4
:10548000FFF74AFF401B0A285AD823689A69110778
:10549000F6D49A6942F001029A61FFF73DFF054692
:1054A00004E0FFF739FF401B0A2849D823689A69AE
:1054B000D207F6D59A69594942F002028B429A61A5
:1054C00000F0A180227C012A9A690CBF22F04002E0
:1054D00042F040029A61627C012A9A690CBF42F450
:1054E000804222F480429A61A27C012A9A690CBF10
:1054F00022F4805242F480529A619A69A068E1686D
:1055000022F4407202439A619A6922F0A4029A61DD
:105510001A69012922F010021A611FD011B3022961
:105520009A6977D042F080029A611A69032942F0A1
:1055300010021A6116D19A6942F020029A6111E0B4
:10554000236E032243F00103236684F85C200120CC
:1055500038BD80F85D20FFF77DFF88E79A6942F04B
:1055600004029A61D4E90612013A0139120242EAB0
:105570004162216A01390A436169013942EA014203
:10558000B0F5407FDA610ED1D4E90B02A16A013A8D
:1055900001381201013942EA00220A43616A0139E5
:1055A00042EA0142DA60D3F8C020E06B616BA56B80
:1055B0000243C3F8C020D3F880201948206422F4A5
:1055C000F81242EA0142C3F88020D3F8802015493E
:1055D000616422F0706242EA0562C3F88020124BD7
:1055E000124A4031C4E91213F033C4E914230021F4
:1055F0004FF45472FBF790F900200123206684F8E1
:105600005C30A06538BD0A4A6168C2F8001559E7E8
:105610000120704742F020029A61A3E70064004035
:1056200000A4004070A4004088A5004060A600408F
:1056300000600040704700BF002847D010B590F8C8
:105640005C200368022A04462FD19A6942F00102C5
:105650009A619A69D0073BD49A69D10738D49A697C
:10566000D20735D49A69D00732D49A69D1072FD49A
:105670009A69D2072CD49A69D00729D49A69D1079C
:1056800026D49A69D20723D49A69D00720D49A697C
:10569000D1071DD49A69D2071AD4226E032142F091
:1056A0000102226684F85C1003E0026E42F00802F8
:1056B0000266DA6D22F003022046DA65FFF7BAFFD0
:1056C0000023236684F85C30184610BD0120704723
:1056D0009A6922F010029A619A69100720D59A6996
:1056E00011071DD59A6912071AD59A69100717D59F
:1056F0009A69110714D59A69120711D59A6910078A
:105700000ED59A6911070BD59A69120708D59A69BF
:10571000100705D59A69110702D59A691207BCD4FA
:105720009A69002042F0020201219A61A06584F882
:105730005C10BEE790F85C20013A012A034605D9C7
:10574000026E42F0020201201A66704770B48A6845
:105750004869D1E90354D1E90061920756B942EA98
:10576000C56202431B6C42EA0442002070BC43F84D
:10577000212070475B6C44EA457443F8314003EBE9
:10578000C1031043586070BC00207047844690F8F5
:105790005C00012807D0DCF8603043F004030120EE
:1057A000CCF86030704710B40198DCF8004040EA53
:1057B0004303D4F8800043EA820242EA011120F058
:1057C0003F030B43C4F88030002010BC704700BF7B
:1057D00090F85C20012A034605D0026E42F00402D4
:1057E00001201A6670470268136A23F470230B4382
:1057F00000201362704700BF90F85C20012A034626
:1058000005D0026E42F0040201201A667047026859
:10581000136A23F003030B4300201362704700BF99
:10582000034690F85C00012805D01A6E42F004028D
:1058300001201A6670471B6842EA01229A64002020
:10584000704700BF90F85C20012A034605D0026E25
:1058500042F0040201201A6670470268D36843F4DC
:1058600000030020D360704790F85C20012A0346B3
:1058700005D0026E42F0040201201A6670470268E9
:10588000D36823F400030020D360704790F85C20B5
:10589000012A034605D0026E42F0040201201A6676
:1058A00070470068022283F85C208269002122F0A0
:1058B0000102826108461966704700BF90F85C30AB
:1058C000022B31D103689A6942F001029A619A6908
:1058D000D1072FD49A69D2072CD49A69D10729D439
:1058E0009A69D20726D49A69D10723D49A69D20734
:1058F00020D49A69D1071DD49A69D2071AD49A691B
:10590000D10717D49A69D20714D49A69D10711D450
:105910009A69D2070ED4036E032243F00103036693
:1059200080F85C2001207047036E43F00803036693
:10593000012070479A6922F010029A619A69110752
:1059400020D59A6912071DD59A6911071AD59A6947
:10595000120717D59A69110714D59A69120711D53C
:105960009A6911070ED59A6912070BD59A69110722
:1059700008D59A69120705D59A69110702D59A695F
:105980001207C8D49969002241F002014FF0010CBE
:105990009961826580F85CC010467047F0B590F858
:1059A0005C30022B86460BD10568D5F8C43013F461
:1059B000001C0BD0036E43F4007303660120F0BD9E
:1059C000036E43F0080303660120F0BDD5F8C46000
:1059D0004B680F6988680C68C6F30146002B37D105
:1059E000074347EA8447D1E9060303434869CC6883
:1059F0000343086A43EA006343EA0443DEF85400C1
:105A000006EBC60440F8347000EBC400134C43604E
:105A1000CB68E35CA3B19378D7781B0443EA0763B0
:105A200017783B43577843EA07230CEB00070CF148
:105A3000040CBB60CB68E35C9C4502F10402EAD332
:105A40000123B340C5F8CC300020CEF85830F0BD6B
:105A50002743074347F08047C5E700BF709A000817
:105A600090F85C20022A034605D0026E42F008023C
:105A700001201A66704703680020C3F8D0107047F1
:105A8000F0B590F85C40022C0CD1402905680FD08D
:105A9000D5F8984024076CD1036E43F480730366F5
:105AA0000120F0BD036E43F0080303660120F0BD42
:105AB000D5F890402607EFD0D5F8904014F08074C8
:105AC00018BFD5F88040D5F8907018BFC4F34024B3
:105AD000C7F301272744846C07EBC70604EBC60411
:105AE000266806F080465660002E5CD12668C6F314
:105AF0008A461660266806F000569660266806F00C
