:020000040800F2
:1000000000800020C13D00083D1C0008411C000884
:10001000451C0008491C00084D1C00080000000099
:10002000000000000000000000000000511C00085B
:10003000551C000800000000591C00085D1C000849
:10004000113E0008113E0008113E0008113E000854
:10005000113E0008113E0008113E0008113E000844
:10006000113E0008113E0008113E0008113E000834
:10007000113E0008113E0008113E0008113E000824
:10008000113E000800000000113E0008791C000825
:100090006D1C0008851C0008113E0008113E000878
:1000A000113E0008113E0008113E0008113E0008F4
:1000B000113E0008113E0008113E0008113E0008E4
:1000C000113E0008113E0008113E0008113E0008D4
:1000D000113E0008113E0008113E0008113E0008C4
:1000E000113E0008113E0008113E0008113E0008B4
:1000F000113E0008113E0008113E000800000000FB
:1001000000000000113E000800000000113E000841
:10011000113E000800000000113E0008113E0008DA
:10012000113E0008113E0008113E0008113E000873
:10013000113E00080000000000000000113E000811
:10014000113E0008113E0008000000000000000001
:10015000000000000000000000000000000000009F
:10016000000000000000000000000000113E000838
:10017000113E000800000000000000000000000028
:1001800000000000113E0008000000000000000018
:10019000000000000000000000000000000000005F
:1001A0000000000000000000113E0008113E0008A1
:1001B000113E0008113E0008113E0008000000003A
:1001C00000000000113E00080000000000000000D8
:0801D000113E0008113E000879
:100200000348044B834202D0034B03B118477047A5
:100210003C0100203C010020000000000548064B86
:100220001B1AD90F01EBA301491002D0034B03B1F4
:10023000184770473C0100203C01002000000000EE
:1002400010B5064C237843B9FFF7DAFF044B13B11E
:100250000448AFF300800123237010BD400100204B
:1002600000000000CC9A000808B5044B1BB10449FB
:100270000448AFF30080BDE80840CFE7000000006D
:1002800044010020CC9A00080CB410B59CB01EAB01
:10029000029106916FF0004104910791084953F8CB
:1002A000042B0591002402A901931B9400F06EF920
:1002B000029B1C701CB0BDE8104002B0704700BF2C
:1002C0000802FFFF0EB430B59CB06FF000411FABC9
:1002D000049107910A4953F8042B029000240690D8
:1002E000084D0868019302A905951B9400F04EF98A
:1002F000029B1C701CB0BDE8304003B0704700BFCB
:10030000000000200802FFFF80EA0102844612F08C
:10031000030F4FD111F0030F32D14DF8044D11F0FE
:10032000040F51F8043B0BD0A3F101329A4312F0B1
:10033000803F04BF4CF8043B51F8043B16D100BF8A
:1003400051F8044BA3F101329A4312F0803FA4F11B
:1003500001320BD14CF8043BA24312F0803F04BFA2
:1003600051F8043B4CF8044BEAD023460CF8013B0F
:1003700013F0FF0F4FEA3323F8D15DF8044B7047B9
:1003800011F0010F06D011F8012B0CF8012B002AF7
:1003900008BF704711F0020FBFD031F8022B12F0E6
:1003A000FF0F16BF2CF8022B8CF8002012F47F4FA1
:1003B000B3D1704711F8012B0CF8012B002AF9D1A9
:1003C000704700BF2DE9F0478F681D46AF420B68AC
:1003D0000C46164636D8B1F90CC01CF4906F0ED1FD
:1003E0003D46184631462A4600F0EAFBA368DF1B6B
:1003F0002368A7602B4400202360BDE8F0874A698A
:10040000096902EB42025F1A02EBD2726B1C5210B6
:100410003B44934292BF914699461A461CF4806F22
:10042000804611D0114600F0EDFA824600B32169F2
:100430003A4600F095FCA38923F4906343F08003CF
:10044000A38105E02F46CCE700F024FD824658B199
:100450000AEB0703A9EB0707A760C4F810A0C4F8CC
:10046000149023602F46BCE72169404600F04AFB08
:10047000A3890C2243F04003C8F800204FF0FF305E
:10048000A381BAE72DE9F04F9368176883B09246CD
:10049000002B74D04FF0000B8B680A6881460C4625
:1004A0005D4645E0B4F90C3013F4906F2CD0D4E9DC
:1004B0000401161A01EB410202EBD272711C5210B8
:1004C0002944914292BF904688460A465B0539D539
:1004D0001146484600F096FA019000283DD0324679
:1004E000216900F03DFCA289019B22F4906242F058
:1004F0008002A2819819A8EB0606A660C4F81480B1
:1005000023612060A8462E463246594600F058FB2B
:10051000DAF80810A3682268A3EB08033244491BE9
:10052000A3602260CAF8081049B3D7E900B50837BC
:1005300098461046002DF8D09D421E46B2D2A846DD
:100540002E46E1E70146484600F0A4FC0346002899
:10055000D0D12169484600F0D5FAA3890C2243F096
:100560004003C9F800204FF0FF30A3810022002390
:10057000CAF80820CAF8043003B0BDE8F08F0020A4
:100580000023CAF8043003B0BDE8F08F2DE9F04F26
:100590001C468B891D069DB088468146934603D52F
:1005A0000B69002B00F0F1800023099343F2200334
:1005B000ADF829309BF800307D4D03940126002BC7
:1005C00073D0DA4603E01AF8013F002B75D0252BD3
:1005D000F9D1BAEB0B0473D19AF80020002A64D049
:1005E00000234FF0FF32CDE905230AF1010A0493FD
:1005F00007938DF853301A9305E0049A06FA03F333
:100600001A430492A2465446052214F8011B2846B8
:1006100000F056FBA346431B0028EED1049BD806EE
:1006200044BF20228DF8532019079AF8001044BFC8
:100630002B228DF853202A2950D1039A11680432B5
:10064000002903927CDB07919AF801102E295BD0D8
:10065000584C0322204600F033FB38B1049B001BAA
:100660004022824013430BF1010B04931BF8011B42
:1006700051488DF82810062200F022FB002865D092
:100680004E4B002B55D003AA00924D4B424604A975
:100690004846AFF3008007467A1C06D0099B3B44CE
:1006A00009939BF80030002B8BD1B8F80C305B0617
:1006B0007AD409981DB0BDE8F08FBAEB0B04F4D0E2
:1006C00023465A4641464846FFF77CFE0130ECD0AF
:1006D000099B9AF80020234409937FE7A1F1300297
:1006E000092A88BFD346B1D8079B00E0013421789E
:1006F00003EB830302EB4303A1F13002092AF5D98E
:100700002E290793A346A3D19BF801102A2927D1AC
:10071000039B9BF802101A6805920433002A0BF120
:1007200002000393B8BF4FF0FF338346B8BF059371
:100730008EE7039B073323F0070308330393ADE7EA
:10074000494243F00203079104937DE703AA009214
:100750001B4B424604A9484600F060FC07469BE755
:10076000A1F130020023092A05930BF1010B3FF69A
:100770006FAF1BF8011F03EB830302EB4303A1F1EF
:100780003002092AF5D9059362E7402100F03AF9D1
:10079000C8F80000C8F8100018B14023C8F8143099
:1007A00002E70C23C9F800304FF0FF3082E700BFAA
:1007B000A09D0008A89D0008AC9D00080000000056
:1007C000C503000870B50F4B0F4DAB42A3EB0506F8
:1007D00007D0B610002455F8043B01349847A642D0
:1007E000F9D809F073F9094D094B5E1BAB424FEA8A
:1007F000A60606D0002455F8043B01349847A642CB
:10080000F9D870BD0C9E00080C9E00080C9E0008D4
:10081000109E000800000000000000000000000022
:1008200000000000000000000000000000000000C8
:1008300000000000000000000000000000000000B8
:1008400030B490F800F020F007016FF0000C10F0C9
:10085000070491F820F040F048804FF000046FF05A
:100860000700D1E9002391F840F000F1080082FA76
:100870004CF2A4FA8CF283FA4CF3A2FA8CF34BBB41
:10088000D1E9022382FA4CF200F10800A4FA8CF2BA
:1008900083FA4CF3A2FA8CF3E3B9D1E9042382FA88
:1008A0004CF200F10800A4FA8CF283FA4CF3A2FA9D
:1008B0008CF37BB9D1E9062301F1200182FA4CF2D5
:1008C00000F10800A4FA8CF283FA4CF3A2FA8CF33C
:1008D000002BC6D0002A04BF04301A4612BAB2FA5E
:1008E00082F200EBD20030BC7047D1E9002304F063
:1008F0000305C4F100004FEAC50514F0040F91F898
:1009000040F00CFA05F562EA05021CBF63EA050334
:1009100062464FF00004AAE7830730B547D0541E63
:10092000002A3ED0CAB2034601E0013C39D303F8A5
:10093000012B9D07F9D1032C2CD9CDB205EB052550
:100940000F2C05EB054535D9A4F1100222F00F0C50
:1009500003F1100EE6444FEA121C1A46C2E9005594
:10096000C2E9025510327245F8D10CF1010214F0BF
:100970000C0F03EB021204F00F0C13D0ACF10403C4
:1009800023F003030433134442F8045B9342FBD186
:100990000CF003042CB1C9B21C4403F8011BA342A0
:1009A000FBD130BD64461346002CF4D1F9E7034671
:1009B0001446C0E71A46A446E0E700BF70B5104EE3
:1009C000336805460C46B3B12146284600F056FE72
:1009D000431C0CD0C41C24F00304A04205D0211AEF
:1009E000284600F04BFE013001D0204670BD4FF08C
:1009F000FF34204670BD194600F040FE3060E3E74A
:100A00005C0100202DE9F843CD1C25F003050835D5
:100A10000C2D38BF0C25002D064618DBA94216D830
:100A2000DFF8DC8000F03CFCD8F80420A2B11446CA
:100A300003E0636822467BB11C4623685B1BF8D445
:100A40000B2B1FD89442636854D053600CE00C23E6
:100A500033600020BDE8F88329463046FFF7AEFF3B
:100A6000431C044619D00560304600F01BFC04F11D
:100A70000B00231D20F00700C21A1CBF1B1AA35035
:100A8000BDE8F88361199442256014BF5160C8F82D
:100A90000410635163684B60E6E7D8F804701FB335
:100AA0003C467F68002FFBD123683946304604EB73
:100AB000030900F0E3FD814516D12368ED1A2946AC
:100AC0003046FFF77BFF01300ED02368D8F80420B2
:100AD0002B442360536883B1A34203D01A465B685A
:100AE0009C42FBD10023B0E70C233360304600F07A
:100AF000D9FBAEE7C8F80430B6E7C8F80470B3E72E
:100B00005C010020002950D038B551F8043C0C1F7E
:100B1000002BB8BFE418054600F0C2FB274A136853
:100B20002BB1A3420CD92168601883422CD063609A
:100B300028461460BDE8384000F0B4BBA3420FD88B
:100B40001A465B68002BF9D111685018844217D0FF
:100B50002CD3636054602846BDE8384000F0A2BB47
:100B600011685018A04214D020D821686018834220
:100B7000EFD118685B680844C4E900035460EAE7F1
:100B800023680B441360E6E718685B68084420603C
:100B9000CDE720680144501883421160DBD1D3E9CE
:100BA00000040144C2E90014D5E770470C232B6010
:100BB0002846BDE8384000F075BB00BF600100204A
:100BC00088420ED98B1883420BD900EB020C002A05
:100BD0006ED0624613F801CD02F801CD9942F9D1E9
:100BE00070470F2A0FD8034602F1FF3C002A5FD05E
:100BF0000CF1010C013B8C4411F8012B03F8012F7F
:100C00006145F9D1704740EA01039B0751D1A2F138
:100C1000100370B501F1200C23F00F0501F1100E47
:100C200000F11004AC441B095EF8105C44F8105C41
:100C30005EF80C5C44F80C5C5EF8085C44F8085CF8
:100C40005EF8045C44F8045C0EF1100EE64504F115
:100C50001004E9D1013312F00C0F01EB031102F083
:100C60000F0400EB031328D0043C24F003064FEAE2
:100C7000940C1E441C1F8E465EF8045B44F8045F0F
:100C8000B442F9D10CF1010402F0030203EB840336
:100C900001EB840102F1FF3C4AB10CF1010C013B74
:100CA0008C4411F8012B03F8012F6145F9D170BD77
:100CB000704702F1FF3C03469AE72246EAE700BF8D
:100CC00001F0FF01102A2BDB10F0070F08D010F8FD
:100CD000013B013A8B422DD010F0070F42B3F6D101
:100CE000F0B441EA012141EA014122F007047FF01A
:100CF00000070023F0E80256083C85EA010586EA71
:100D0000010685FA47F5A3FA87F586FA47F6A5FAAC
:100D100087F68EB9EED1F0BC01F0FF0102F00702B8
:100D200032B110F8013B013A83EA010313B1F8D163
:100D30000020704701387047002D06BF3546033844
:100D4000073815F0010F07D1013015F4807F02BF7D
:100D5000013015F4C03F0130F0BC0138704700BFCE
:100D6000844641EA000313F003036DD1403A41D3B6
:100D700051F8043B40F8043B51F8043B40F8043B75
:100D800051F8043B40F8043B51F8043B40F8043B65
:100D900051F8043B40F8043B51F8043B40F8043B55
:100DA00051F8043B40F8043B51F8043B40F8043B45
:100DB00051F8043B40F8043B51F8043B40F8043B35
:100DC00051F8043B40F8043B51F8043B40F8043B25
:100DD00051F8043B40F8043B51F8043B40F8043B15
:100DE00051F8043B40F8043B51F8043B40F8043B05
:100DF000403ABDD2303211D351F8043B40F8043BA5
:100E000051F8043B40F8043B51F8043B40F8043BE4
:100E100051F8043B40F8043B103AEDD20C3205D3B4
:100E200051F8043B40F8043B043AF9D2043208D0AC
:100E3000D2071CBF11F8013B00F8013B01D30B881E
:100E400003806046704700BF082A13D38B078DD0FC
:100E500010F003038AD0C3F10403D21ADB071CBFCE
:100E600011F8013B00F8013B80D331F8023B20F838
:100E7000023B7BE7043AD9D3013A11F8013B00F871
:100E8000013BF9D20B7803704B7843708B788370F9
:100E9000604670472DE9F041144641B30AB3064657
:100EA0000D4600F0FDFB8442074602D8B4EB500F1C
:100EB00013D821463046FFF7A5FD804650B1BC420D
:100EC0002246294628BF3A46FFF74AFF29463046C0
:100ED000FFF718FE4046BDE8F081A8464046BDE851
:100EE000F081A046FFF70EFE4046BDE8F081BDE868
:100EF000F0411146FFF786BD2DE9F84F92461F4697
:100F00000A698B68DDF828909A42B8BF1A46CAF879
:100F1000002091F843300C46064613B10132CAF85E
:100F20000020226891065FD5DAF800300233CAF853
:100F30000030226812F0060F11461DD1E168994277
:100F4000D8BF114618DD4FF0000804F1190B05E079
:100F5000E568DAF80030ED1A45450CDD01235A4604
:100F600039463046C847013008F10108F0D14FF04A
:100F7000FF30BDE8F88F216894F84330003B18BF7C
:100F800001238A060AD5E1185A1C302081F8430053
:100F9000224494F8451082F84310023304F14302CE
:100FA00039463046C8470130E1D02368DAF80050AE
:100FB000216903F00603042BD4E902201BD08A42E6
:100FC00020DD4FF00008521A90441A34002501E049
:100FD000454517DA0123224639463046C8470130D5
:100FE00005F10105F4D1C2E712F0060F0DD0003B68
:100FF00018BF0123D2E7401B8A4220EAE078E2DCF6
:101000000028E2DC0020BDE8F88FE168DAF8003063
:101010009942D8BF114696DCAEE700BF2DE9F047F4
:10102000174684B00A7E0C9D0C460646984601F190
:10103000430C002A35D0A2F15803D9B2202969D82F
:10104000202B67D8DFE813F0E60066006600660034
:101050006600660066006600660066006600AC001A
:10106000700066006600660066007000660066003C
:101070006600660021008300C60066006600B600B8
:101080006600830066006600EC002B6822686169D8
:10109000181D286010061B6802D4520600F1E0807B
:1010A00019600023E1462361CDF800803B4603AA86
:1010B00021463046FFF720FF013020D023694A4601
:1010C00039463046C047013019D02368E068DDF862
:1010D0000C909B0718D5484516DD002504F1190A28
:1010E00004E0E068A0EB0903AB420DDD01235246AA
:1010F00039463046C047013005F10105F1D14FF0C6
:10110000FF3004B0BDE8F0874845B8BF484604B09A
:10111000BDE8F08784F84220012004F14209002351
:10112000206184F84330BFE72A682368111D180640
:10113000296002D4590600F1958010680146002804
:101140006268C0F2938054484FF00A0E15E02068A0
:101150002B6810F0800F53F8041B02D1400648BFE3
:1011600089B26F2A4C482B6014BF4FF00A0E4FF023
:10117000080E0023626884F84330002AA26051DB25
:10118000236823F00403236000294BD1002A7BD17C
:10119000E146BEF1080F56D0ACEB0903236183E7AB
:1011A0002B681A6804332B6004F1420984F842204A
:1011B0000120B4E72B686268191D2960D3F80090FC
:1011C00000214846FFF77CFD002863D0A0EB090012
:1011D0006060A4E7236843F02003236078222F484F
:1011E00084F845202A6813F0800F52F8041B03D1BD
:1011F00013F0400F18BF89B22A60DA0744BF43F0EA
:101200002003236019B9236823F0200323604FF0E3
:10121000100EAEE7582384F845301F482368E1E7F5
:101220002368DBE77546E146B1FBF5F305FB131ACE
:101230000A46AA4210F80A1009F8011D1946F3D20D
:10124000BEF1080FA8D12368DD07A5D56268236920
:101250009A42A1DC302309F8013C09F1FF399BE7F0
:1012600019801EE7B2F90010084668E72D20002A11
:10127000A26084F8430002DB23F0040323600A2504
:1012800005484942AE46CEE7037884F8423004F17F
:1012900042097EE7606842E7B49D0008C89D0008E7
:1012A000704700BF704700BF002A3ED030B584466B
:1012B0000446084380070B462ED1032A07D82BE0AB
:1012C000043A25D01EF0803F22D1032A22D920687B
:1012D000194653F8045BA0F1013EA842A4462EEA49
:1012E000000E04F10404EBD09CF800000C7884425A
:1012F0001DD1E64668B11EF8010F11F8014FA2EBAF
:101300000E03A04203F1FF3311D11CEB0303F1D113
:10131000002030BDA44619469CF800000C78A0427D
:1013200005D1012AF4D0E646E4E710467047001BD9
:1013300030BD00BF00000000000000000000000001
:1013400002780B78012A28BF9A4240F0D8806DE9D4
:10135000044540EA0104CDE902676FF0000C4FEA52
:1013600044721AB380EA010414F0070F6BD100F045
:10137000070420F0070004F0030521F007014FEAFD
:10138000C505F0E8042314F0040FF1E804670CFA33
:1013900005F462EA040266EA04060BD063EA040379
:1013A000624667EA0407664604E000BFF0E80423EB
:1013B000F1E8046782FA4CF582EA0604A4FA8CF498
:1013C0006CBB83FA4CF583EA0705A5FA8CF595B951
:1013D00050E9022351E9026782FA4CF582EA0604D9
:1013E000A4FA8CF483FA4CF583EA0705A5FA8CF588
:1013F0002543DBD09CB92DBAB5FA85F424F0070457
:1014000027FA04F1DDE9026723FA04F303F0FF0091
:1014100001F0FF01FDE80445A0EB0100704724BA8C
:10142000B4FA84F424F0070426FA04F1DDE9026733
:1014300022FA04F202F0FF0001F0FF01FDE804458A
:10144000A0EB0100704714F0030F3CD110F003042F
:1014500028D150F8082B51F8083B82FA4CF582EA63
:101460000305A5FA8CF55DB950F8042C51F8043C3D
:1014700082FA4CF582EA0305A5FA8CF5002DE8D036
:101480002DBAB5FA85F424F0070423FA04F122FA00
:1014900004F202F0FF0001F0FF01FDE80445A0EBBB
:1014A000010070474FEAC40420F0030050F8082BF5
:1014B00021F0030151F8083B0CFA04F462EA04023B
:1014C00063EA0403C9E710F003041DD0A1EB040193
:1014D00020F00300E40750F8042B06D012D28B78DA
:1014E0005FFAA2F4E41A06D12BB1CB785FFAB2F41A
:1014F000E41A00D133B920465DF8104B7047A2EBD7
:101500000300704701F1040150F8042BCC0721F0CF
:10151000030151F8043B48D824D222F07F4482FAD8
:101520004CF594EA1325A5FA8CF50AD165B951F862
:10153000043B84EA0204B4EB036F0ED150F8042B91
:10154000EBE74FEA132355E035F07F454DD108789E
:10155000FDE80445C0F1000070474FEA126203F055
:10156000FF0347E002EA1C4482FA4CF594EA134573
:10157000A5FA8CF50AD165B951F8043B84EA020456
:10158000B4EB034F0CD150F8042BEBE74FEA1343B5
:1015900030E015EA1C4528D10B884FEA124229E0B9
:1015A0004FEA124203EA1C4324E002F0FF0482FAED
:1015B0004CF594EA1365A5FA8CF50AD165B951F892
:1015C000043B84EA0204B4EB032F09D150F8042B46
:1015D000EBE74FEA13630DE015F0FF0F05D10B6841
:1015E0004FEA122223F07F4304E04FF00000FDE8B1
:1015F0000445704712BA1BBA82FA4CF482EA03041B
:10160000A4FA8CF5B5FA85F402FA04F203FA04F3AD
:101610004FEA1260FDE80445A0EB1360704700BF7D
:10162000032A30B415D941EA0004A40784460B46C6
:1016300004D0541E0FE0043A032A08D91946604624
:1016400053F8044B5CF8045BA542F4D0F1E7604624
:101650001946541E7AB1431E0139021901E09A421B
:1016600009D013F8010F11F801CF6045F7D0A0EBB6
:101670000C0030BC7047002030BC704738B5074DB7
:101680000022044608462A6000F012F8431C00D0ED
:1016900038BD2B68002BFBD0236038BDA002002092
:1016A00051F8043C181F002BBCBF0B58C0187047E2
:1016B000044A05491368002B08BF0B461844106004
:1016C00018467047A4020020A85800202DE9F843CE
:1016D00000F062F900B9FEE701F088FA0028FAD0BC
:1016E00002F0D8F80028F6D003F074FA00F026FBD8
:1016F00001F0CAFC02F08EFB1D4DDFF878801E4E13
:101700004FF00009012702F091FA30B101F0B4FA6C
:101710002F7002F08BFA0028F8D12B7813B32870C1
:1017200088F8009001F0C2FA03F052FF0446014627
:10173000002001F083FB2146002003F06DFA2146D2
:10174000002003F0E7F92146002000F0BDFE3368D9
:10175000E31A632BD7D9346000F096FD204601F0E0
:1017600057FCD0E798F80030002BDDD0D8E700BF59
:10177000A802002050000020AC020020024B4FF0D5
:1017800000629A60704700BF00ED00E01B4B00B59F
:10179000986D40F0020098659B6D95B003F00203D0
:1017A00044220021009303A8009BFFF7B5F8144BD7
:1017B000144A1B681449A2FB03239B0C013B4FF006
:1017C000FF3201A8CDE90113049207F01DFB18B107
:1017D000002015B05DF804FB01A807F0A7FB002866
:1017E000F6D102460146152003F028FF152003F02C
:1017F00061FF012015B05DF804FB00BF001002403E
:101800005400002083DE1B4300040040024A13689A
:1018100001331360704700BFB00200200249034A41
:1018200000234B621360704700040040B0020020A8
:1018300008B503F0E9FE40F26943984207D940F247
:101840007943C01AB0FA80F04009400008BDB0F5F5
:101850008D6F34BF00200120400008BD014B186887
:10186000704700BFB4020020014B1868704700BFEA
:10187000B002002010B58EB004463422002101A829
:10188000FFF74AF801A805F039F8022C15D0032C0F
:101890000BD0012C19D1079B03F4E063B3F5806FE3
:1018A0000CBF022001200EB010BD079B13F0806F0B
:1018B0000CBF022001200EB010BD079B13F0806FFB
:1018C00014BF022001200EB010BD00200EB010BDCC
:1018D000032851D030B58FB0044601F02FF810B175
:1018E00034200FB030BD03F08FFE40F269439842C0
:1018F00005D940F27943984204D03620F1E7B0F59B
:101900008D6FFAD3342200216846FFF705F8684648
:1019100004F0F4FF012C31D0022CEED1069B5B01C8
:1019200028D44FF4C4444FF048653022002101A868
:10193000FEF7F2FFCDE90545164B042200929A69A5
:101940004CF2FA3142F040429A61196104F044FDD0
:10195000E8B904F061FDD0B9684604F055FE0446CC
:1019600004F06EFD054604F04BFD2C4340EA0403F1
:10197000DBB263B90220B4E736207047069B03F45C
:10198000E063B3F5806FF5D04FF48065CDE73B2081
:10199000A7E700BF0020024070B5B2B003F0F4FD2D
:1019A00018B10024204632B070BD4A4DAB6D43F0F3
:1019B0008053AB65AB6D03F0805300930446009BEE
:1019C00006F01CFA2A6E012632432A662A6E149407
:1019D00032400223032101920F20CDE91863CDE9A3
:1019E0001D33019A1F9321224FF480331A91032152
:1019F000CDE91223CDE906014FF48063142212A829
:101A0000CDE91544CDE9093308941B9617941C922F
:101A100006F0C6FA0028C4D1082106A806F034FD55
:101A20000028BED10146402222A8FEF775FF4FF4E0
:101A300040524FF0807321A821922D9306F044FE6E
:101A400004460028ADD14FF00053CDE90C034BF60E
:101A50007F322223CDE90F230CA8202311930E946B
:101A600007F0A8F9EB6C3343EB64EB6C3340029363
:101A7000029BEB6C43F00203EB64EB6C03F002039C
:101A80000393039BEB6C43F00403EB64EB6C03F0F8
:101A900004030493049BEB6C43F02003EB64EB6CB6
:101AA00003F020032246214605934FF0FF30059BAB
:101AB00003F0C4FD4FF4805006F056FF064B18604B
:101AC000FFF764FE044600283FF46BAF3046FFF793
:101AD000FFFE67E700100240B4020020FF2818D87C
:101AE0000D4AB2F8E0100D4A4FF6FF7399420ED03E
:101AF0000B490C4BD1F8E01503EA812303F1006395
:101B00000130A3EBC020824288BF00207047064B03
:101B1000F6E70020704700BF0075FF1FE49A000839
:101B20000070FF1F00FCFF0300000208FF2842D8DE
:101B30002DE9F0413B4B0E46B3F8E0103A4B154609
:101B40004FF6FF72914286B02BD0384A384CD2F80B
:101B5000E02504EA822404F100640130A4EBC024EF
:101B6000A34224D8B5F5FA6F21D823884FF6FF7227
:101B7000934208BF00239D4206D12A463146A01C4D
:101B8000FFF74EFD00284AD02A4B9A6942F04042A6
:101B90009A614CF2FA321A6104F01EFC68B13520E9
:101BA00006E0254C0130A4EBC024A342DAD93D2045
:101BB00006B0BDE8F0813D20704704F17843DB0AB0
:101BC000049300220123CDE9022301A9012302A8E5
:101BD000059304F06BFC0746E0B9F5B1C6F10808BF
:101BE0003146B01C2A46A04405F10904FEF7E8FF7F
:101BF000C4F3CC0426F8085903E00137BBB2A34272
:101C00000BD208EB06010020F6E9022304F02CFBBE
:101C10000028F2D004F0F4FBC1E704F0F1FB02204D
:101C2000C6E700BF0075FF1FE49A00080070FF1FA1
:101C300000FCFF030020024000000208FEE700BF96
:101C4000FEE700BFFEE700BFFEE700BFFEE700BF04
:101C5000704700BF704700BF704700BF08B503F072
:101C6000ABFCBDE8084003F04DBD00BF014805F0E6
:101C7000B3B900BF74090020014805F0ADB900BF39
:101C80007409002008B5002000F0AAFEBDE8084055
:101C900004F026BA70B51646054608461C4601F003
:101CA0002BFAB6F1005F15D0049B73B1B4B91E23B3
:101CB000C200102894BF02F11A0102F11E01059A18
:101CC000B2F5801F0DD0C81870BDC2002CBB02F148
:101CD0002F0070BD3CB3B4F1804F26D03123C20039
:101CE000E7E7D5E959201044D5F8602100FB02222E
:101CF000104800FB02F2D5E9550420440130B2FB44
:101D0000F0F20D48D5F85041B2FBF4F201FB02F2BB
:101D1000A0FB020203EB924070BDB4F1804F06D1EC
:101D200002F1430070BD2F2070BD432070BD3123F0
:101D3000BFE700BF40420F0083DE1B432B4BF0B5D3
:101D40009A6D2B4D42F000729A659B6D87B000240E
:101D500003F000730093002200232046C5E95E23B0
:101D6000C5F85041009BC5F86041C5F88C41C5F8E5
:101D70009C4185F8704102F033FF1E4B1B68A34263
:101D800026DA01AE1C4A1D4B116801911C491B78D3
:101D90000868059300240222032331460292CDE90C
:101DA000034304F037FE174B17481B682B6080274E
:101DB00001233146CDE90173CDE90344059404F0D4
:101DC00029FE11482246394605F000F807B0F0BD5B
:101DD0000E4A019301AE012102911068059431462B
:101DE000CDE9034404F016FECCE700BF001002402A
:101DF000B80200205800002064000020600000208D
:101E0000680000206C000020000400485C000020F6
:101E10002DE9F043A34D4FF4D07303FB005383B07F
:101E200093F87021002A73D1D3F85031002B6BD076
:101E300095F8703104460F46002B00F0E3802046F1
:101E400002F0CEFE204600F0D3FD0021084600F04F
:101E50005FFF954A4FF4D07304FB03F3125DEE1855
:101E600002F00102327403F5BC710122B2746818E9
:101E7000002272607274F263F7606F58406803F179
:101E800030012944C1E90170B26003F5A872A918B4
:101E9000D1E9017055F802C0C96810332B44C3E979
:101EA00001C1C3E90370D6F86031002B40F0868091
:101EB000FFF7D4FC7D4B984222D94FF4D07304FB3A
:101EC00003F3EE1803F5B872D6E955311944D6F884
:101ED0005031774F01FB033376494FF47A7CA1FBF5
:101EE00000100021800C0CFB03F3B3FBF0F3304631
:101EF000C6F88431B95286F8711103F009FC58B163
:101F0000352003B0BDE8F0833A2003B0BDE8F0838C
:101F1000342003B0BDE8F0830146304603F0B4FD41
:101F20000028EDD10221304603F0C2FD0028E7D1A0
:101F300001221021304604F02DF802460028DFD19E
:101F40004FF46041304604F03BF807460028D7D1F3
:101F5000304603F0E5FDD6F86031C6F894717BB1E8
:101F6000D6E959210A4402FB03333221524A03FBCA
:101F700001F1A2FB012149094B1E3E2B40F2818059
:101F80004FF4D07304FB03F3EA18D2E95E1201EBBD
:101F90000209B9F1000F55DD6433EF184FF0000866
:101FA00005E008F10108C14507F118074AD0394694
:101FB000304603F01BFD0028F3D0A1E7FFF74EFCED
:101FC000D6E959C1D6F85031D6F860E1B0FBFEF73A
:101FD0000CEB01020132B7FBF2F713BBBB422CBF83
:101FE0004FF480774FF440774FF4D07303FB0453E2
:101FF000D3F86C219F60C3F824E0C3F82CC01963A8
:102000009A6255E703F1804303F504339A6B42F07B
:1020100000729A639A6B22F000729A63FFF7FEFBDC
:102020000DE7FFF71BFCD6E9553213445A1CD6E9DD
:1020300058ECD6F85031D6F86811B0FBF3F3B3FB87
:10204000F2F3CBE74FF4D07303FB0455D5E95E32CE
:10205000D34214BF012200220023009311463046D0
:1020600003F0F0FC304603F06DFD00287FF448AF2C
:102070000146204600F07CFE0123022085F87031E5
:1020800043E73A463046C6F8941103F025FD002890
:102090007FF436AF304603F031FD00283FF470AFD7
:1020A0002EE700BFB8020020580400203F420F0076
:1020B000BB02002083DE1B431F85EB5138B5114C5A
:1020C00094F8703103B938BD2046002503F052FD65
:1020D000204603F00DFC002328460022C4E95E23BD
:1020E000C4F85051C4F86051C4F88C51C4F89C51E4
:1020F00084F8705102F074FD28460121BDE8384093
:1021000000F036BEB8020020F8B5164F4FF4D07478
:1021100000FB04F43D1995F8703103B9F8BD06468B
:10212000284603F027FD04F5BC74284603F0E0FBC5
:102130003C44002300210020C5F85031C5F860312F
:10214000C4E900013046C5F88C31C5F89C3185F8EA
:10215000703102F045FD30460121BDE8F84000F045
:1021600007BE00BFB80200202DE9F8432A4C4FF407
:10217000D07505FB00450646D5F860810F469146AF
:10218000B8F1000F13D1D5F85031FBB900237B61B2
:102190004FF4D07303FB06444A463946204603F009
:1021A00059FD30BB237C012B2AD0BDE8F883FFF713
:1021B00055FBD5E9593213445A1CD5F85031D5F89E
:1021C0006011B0FBF1F8B8FBF2F87BB1FFF746FB0A
:1021D0004FF4D07101FB0641D1E955321A44013266
:1021E000D1F85031B0FBF3F3B3FBF2F34345CFD357
:1021F000CCE730460122BDE8F843022100F008BCDC
:1022000003F0E6F9D4F89C31C4F898010133C4F81E
:102210009C31BDE8F88300BFB802002038B5174CE8
:102220004FF4D07303FB004494F870312BB1D4F811
:10223000383194F871210BB16AB138BD002AFCD055
:1022400005460F4984F8713102F09CFC2846BDE830
:10225000384000F0BFBC01230A4984F8713102F014
:1022600091FC0721204603F057FD204603F082FC35
:102270002046BDE8384003F065BC00BFB80200202E
:102280001C9B0008FC9A000838B51F4C94F870316C
:102290004BB1D4F88C2132B1D4F890319A4203D9A1
:1022A0000133C4F8903138BDD4E9603000FB03F548
:1022B000164B6D09A3FB0535ED0940F2654303FBA1
:1022C00005F5134BB5FBF2F59D4213D842F20F739F
:1022D0009D4211D90F4BA3FB0535C5F34735294660
:1022E000002002F03BFC0023C4F8803184F88851C0
:1022F0000123D6E76325F2E794F88851002DF2D048
:1023000000210D46EBE700BFB8020020C55A7C0A49
:102310003F420F005917B7D138B54FF4D075284C4C
:1023200005FB00F004EB000C9CF87051002D45D12A
:10233000551E39B31F2D3FD8591E1F293CD804996B
:1023400001390F2938D8059901390F2934D8CCE93A
:102350005823049BCCF8683100F5B070059BCCF88D
:102360006C310444FFF77AFAD4E901251549236852
:10237000B0FBF3F32A440132B3FBF2F38B421BD8D8
:10238000022038BDB5F5007F16D2591EFF2913D89B
:10239000049901397F290FD8059901397F290BD874
:1023A000CCE95423049BCCF8583100F5A870059B68
:1023B000CCF85C310444D5E73D2038BD342038BD2D
:1023C000B8020020404B4C00354B1B5CDB063CD573
:1023D0002DE9F04F334D4FF4D07303FB0053B3B0EE
:1023E000DB68044603BB6E464FF4D07704FB07F767
:1023F00007F5A8722A442C49304600F08BFE30467F
:10240000FEF71EFA07F5B0722A443D4427493044CE
:1024100000F080FED5F86071C7B93146204602F061
:10242000B1FB33B0BDE8F08F013B032B96BF204AD0
:10243000204A52F8232020496E463046FDF742FFDD
:102440003146204602F09EFBCEE770473046FEF74D
:10245000F7F9D5F850B1194DDFF864A0DFF86490B2
:1024600006EB000E844600F111080FCD46F80C0073
:10247000CEF80C302B88CEF80410CEF80820BB45DF
:1024800014BF51464946AEF8103006EB0800FDF780
:102490003BFF3146204602F075FB33B0BDE8F08FBC
:1024A00058040020B8020020689B0008709B0008B8
:1024B000DC9D0008449B0008549B0008789B0008A2
:1024C000509B00084C9B00082DE9F043AC4D4FF4A5
:1024D000D07600FB06F6AF19C1B097F8703113B98A
:1024E00041B0BDE8F083044688464022002117A889
:1024F000FEF712FA03A9384603F0BAFCF0B9A14B73
:102500001B5D980703D50B9B002B40F02D814FF4EA
:10251000D07303FB0453DA68002A00F09C804FF468
:10252000D07303FB04532046D3F89C21002AC4BF78
:1025300002F1FF32C3E9668200F032FC17AB0DAA4C
:102540004021384603F0F8FB002800F0CB8017ABA1
:102550000DAA4121384603F0EFFBA0B94FF4D07328
:1025600003FB0453D3F88C21002A40F08B804FF4F6
:10257000D07303FB04532046D3F880111144C3F8F1
:10258000801100F031FC4FF4D07909FB04F955F8C3
:1025900009301A6DD10400F1DC801A6D520700F188
:1025A000CB801B6D9B0600F1908006F59276A919F1
:1025B000384603F0AFFC4FF4D07303FB0453D3F859
:1025C0009C21002A05DDD3F8982102F5FA724245D4
:1025D00064D94FF4D07303FB045393F873211AB9F1
:1025E00093F87021002A69D14FF4D07303FB04558E
:1025F00095F87431002B7FF473AFD5F89431002B2C
:102600003FF46EAFD5F84C219342BFF469AF7E2AF8
:102610003FF666AF012385F87431FFF71FF95A4B77
:1026200098427FF65DAFD5F89431D5F84C21D21A97
:10263000564B4FF47A75A3FB00139B0C544905FBD2
:1026400002F227A8B2FBF3F2FDF73CFE27A92046D1
:1026500002F098FA44E7D3F88C0148B1089B019343
:10266000099B00930699DDE904323846FFF712FB17
:102670004FF4D07303FB0453D3F880210244C3F812
:1026800080214CE7129B0193139B00931099DDE985
:102690000E323846FFF7FEFA024668E700260721A9
:1026A0003846C3F89C6103F037FB204602F098FAE5
:1026B00032461021204600F0ABF98AE7012220467D
:1026C00083F87321FFF780FE8EE700220121204668
:1026D00000F09EF94FF4D07304FB03F32022EB5873
:1026E0001A6562E7FFF7C0F8149B17AA43EA004394
:1026F0000DA92046149302F02DFC4FF4D07303FB78
:102700000453D3F88C2152B1129B0193139B009375
:102710001099DDE90E323846FFF7BCFA02464FF455
:10272000D07303FB04532046D3F880111144C3F83F
:10273000801100F059FB0AE700220121204600F039
:1027400067F94FF4D07304FB03F30422EB581A65C6
:1027500027E700220221204600F05AF955F80930F7
:102760004FF480521A6518E7FFF77EF80A9B03A919
:1027700043EA004320460A9302F0C2FCC7E600BFCA
:10278000B8020020580400203F420F0083DE1B43A4
:102790008C9B00082DE9F041434C4FF4D07E0EFB9A
:1027A00000FE04EB0E05D5E95E8708EB070CBCF1D3
:1027B000070F19DC002940F2FF7618BF6FF0604662
:1027C000964211D39E420FD395F87051CDB1BCF112
:1027D000010F06D1A7F10107B7FA87F77F098F42EA
:1027E00005D03420BDE8F0813D20BDE8F0810EF534
:1027F000BC7EA64400260027CEE900674FF0000803
:10280000C4460CEB4C0CE1B14FF4D07100FB01F16C
:1028100001EBCC0C2144A444CCE91D23D1F87C313C
:10282000CCF868300133C1F87C314FF08043CCF8EC
:10283000643002260123CCE91B63CDB90220BDE838
:10284000F0814FF4D07600FB06F606EBCC0CA444E6
:102850002644CCE91D2308F10103C6F87831022291
:102860000123CCE91B23CCF86410CCF86880E4E7A2
:102870004FF4D07303FB00F02718D7E95E631E44C2
:10288000002EDBDD64300444002504E00135AE4257
:1028900004F11804D2D02146384603F0A7F80028E6
:1028A000F4D03520A1E700BFB80200204FF4D07269
:1028B000084B02FB00F01A1892F8702142B900F59B
:1028C000BC70184400220023C0E900230220704796
:1028D00034207047B80200203620704738B50C4BC2
:1028E00053F82030002B11DD0D460A4904462A46D4
:1028F00051F8200099B204F069FA074B4FF4D072F6
:1029000002FB0433012083F8725138BD002038BD2A
:10291000580000205C000020B8020020642908D87C
:10292000054B4FF4D07202FB00330220C3F88C1128
:1029300070473D20704700BFB8020020014B93F85C
:1029400070017047B8020020034B4FF4D07202FBB5
:10295000003393F870017047B8020020054B4FF424
:10296000D07202FB0033D3F83001003818BF0120C9
:10297000704700BFB8020020054B4FF4D07202FB35
:102980000033D3F86001003818BF0120704700BF42
:10299000B80200200A4B4FF4D07202FB003090F8CE
:1029A00070314BB1C368022B08D0D0F83831002BFE
:1029B00014BF3820022070473320704739207047F9
:1029C000B802002008B5054B4FF4D07202FB00306E
:1029D00003F0DAFA003818BF012008BDB802002061
:1029E000024B4FF4D07202FB00307047B802002057
:1029F000064900EB800001EB8002800000230B50B1
:102A0000C2E90133C2E90333704700BF5C04002010
:102A1000094B00EB800000B54FEA800E03EB80000D
:102A200090F809C041EA0C01417212B1012203F889
:102A30000E205DF804FB00BF5C040020034A142153
:102A4000082301FB00301044704700BF5C040020E5
:102A50002DE9F04F5D4B1B5C1B0793B004D40025A0
:102A6000284613B0BDE8F08F04460F46FFF76CFF11
:102A700005460028F3D02046FFF7B2FF07A903F070
:102A800049FA2046FFF7ACFF03A903F06BFA0B9B52
:102A90004F4E4FEA84082BB104EB840306EB83030B
:102AA00010221A720A9A0C9B002A3AD1002B40D1AC
:102AB00008EB040306EB83031A7A1AB99A7B0AB16E
:102AC00001225A7308EB040306EB8303039ADA72BC
:102AD0009A7A049919736AB9089A12B1072A18BF29
:102AE0009A72079B33B1072B04D008EB040206EB64
:102AF0008202937208EB0403990016F8232006EB78
:102B00008309EAB100237354A04406EB8806B06839
:102B1000B389C6F80E0028467760738213B0BDE80B
:102B2000F08F08EB040206EB820220211172002BC9
:102B3000C8D008EB040306EB830330221A72C1E706
:102B400004EB840A4FEA8A0A0AF1080306EB030B36
:102B500006215846019300F0BFFA019B20B199F875
:102B60000D20002A3FF47BAF08EB040206EB820243
:102B7000117A302925D008EB040206EB8202526854
:102B8000BA1A632A7FF66BAF0AF10E0AF15A36F8C9
:102B90000A309942B244B7D1BBF80210BAF80230F9
:102BA00099420BF1020B0AF1020AADD1BBF80210F7
:102BB000BAF802309942A7D140F6B7339A42A3D867
:102BC0004DE7927B302A9FD1D5E700BF5804002003
:102BD0005C040020044A1421082301FB0030811802
:102BE000002313508B8070475C0400202DE9F041D6
:102BF0001D4DDFF878802A68002386B001219A42B3
:102C0000CDE90113CDE903336E4605DBD8F80000AA
:102C10000092314603F0FEFE154C2368002B1CDAAF
:102C2000144F2988D8F80000002204F0CFF821883A
:102C30003868002204F0CAF8042431464FF090406E
:102C4000009403F0E7FE00224FF09040214604F08C
:102C5000BDF8012006B0BDE8F081064F009338684A
:102C6000314603F0D7FEDCE770000020740000203E
:102C7000780000207C00002008B5084A084B118825
:102C80001868012204F0A2F8064A074B1188186858
:102C90000122BDE8084004F099B800BF7000002090
:102CA00074000020780000207C0000202DE9F04115
:102CB000DFF84C80134F144E144D0824B8F8001060
:102CC0003868002204F082F831882868012204F074
:102CD0007DF84B2002F082FCB8F800103868012221
:102CE00004F074F831882868002204F06FF84B2053
:102CF00002F074FC631E13F0FF04DFD1BDE8F08125
:102D00007000002074000020780000207C0000206B
:102D100070B5124E06EB4016337F8B421CD0054631
:102D20000C46317702F054FC0D4B33F825100D4B57
:102D300084F0010450307061224653F8250004F0FD
:102D400045F8094A094B32F8251053F82500224668
:102D5000BDE8704004F03AB870BD00BF70040020B8
:102D60007000002074000020780000207C0000200B
:102D7000084B03EB40130A461B7F03B1704706491B
:102D8000064B31F8201053F8200082F0010204F0C5
:102D90001DB800BF70040020780000207C000020D7
:102DA00070B50E4C04EB4014237F0BB9666806B176
:102DB00070BD054602F00CFCE368C01A2828F7D95C
:102DC000074B084A53F8250032F82510324603F025
:102DD000FDFF02F0FDFB606070BD00BF70040020CD
:102DE0007C000020780000202DE9F041104E06EB19
:102DF00040152B7F2BB9470156F80780B8F1000F1B
:102E000001D0BDE8F081044602F0E2FBAB68C01AD5
:102E10002828F6D9074B33F82410074B424653F8BD
:102E2000240003F0D3FF02F0D3FBF051E9E700BF29
:102E30007004002070000020740000202DE9F84389
:102E4000554E06EB401504462B7F884623B16B692F
:102E50008B424CD9BDE8F8834701FFF7EFFD0378BB
:102E6000302B2DD02046FFF7E9FD90F80190B9F105
:102E7000000F25D12B7C002B5CD1F359F51923B120
:102E8000F359A8EB03030F2B69D8F5196B6823B12D
:102E90006B68A8EB03030F2B6FD82046FFF754FD98
:102EA0000028D7D13E44327F002AD3D13B4B3C4946
:102EB00053F8240031F82410BDE8F84303F086BF2E
:102EC000384B394A53F8240032F82410002203F01A
:102ED0007DFF324B324A53F8240032F82410374435
:102EE000002203F073FF01233B74BDE8F883AB6954
:102EF0002B492A4831F8241050F82400013303F0FC
:102F00000302013A18BF0122AB6103F05FFFAA6917
:102F1000244B254953F8240031F8241002F0030211
:102F2000033A18BF012203F051FF6B6950336B6104
:102F3000BDE8F8831C4B33F824101A4B012253F8D8
:102F4000240003F043FF164B33F82410134B0122E7
:102F500053F8240003F03AFF85F810908DE7124BE8
:102F600033F824100F4B012253F8240003F02EFFF6
:102F70000023F351C5F8088087E7094B33F8241084
:102F8000064B012253F8240003F020FF0023C5F86C
:102F90000C806B6081E700BF700400207C00002083
:102FA00078000020740000207000002008B5FFF7B2
:102FB00085F80320FEF75EFC022802D1104B0122A7
:102FC0001A700220FEF784FC022802D0362800D0B6
:102FD00008BD0B4B1B7873B902F0FAFA094B186065
:102FE000FEF726FC0138C0B2012806D8064B074A76
:102FF0001A60022008BD3C2008BD362008BD00BF75
:103000009004002094040020980400200000FF1F7A
:1030100070B51A4C23687BB3194B1B68C01AB0F506
:10302000967F29D34FF0E02300251D615D619D61EE
:1030300072B64FF0FF32C3F88021C3F88022C3F884
:103040008421C3F88422C3F88821C3F88822C3F8F6
:103050008C21C3F88C2202F05BFA04F041FF094A8C
:10306000236893601A6825605B6882F30888BFF361
:103070006F8FBDE87040184770BD00BF98040020F6
:103080009404002000ED00E030B40B4A0B4B4FF4E9
:1030900000704FF48071C2E9000180208021C2E9F4
:1030A00002012024202510201021C3E90045C3E996
:1030B000020130BC704700BFB0040020A004002013
:1030C000034A044B00280CBF10461846704700BF47
:1030D000B0040020A004002000290BDD0139431EAC
:1030E000084401E0834205D013F8012F002AF9D0EB
:1030F0000020704701207047082807D909380628A2
:103100009ABF034B18564FF0FF30704740B27047DC
:10311000EC9D0008F0B5136885B00E46002B4FD02B
:103120005368144692684FF47A7503FB05551344AF
:1031300001330746B5FBF3F5FEF790FBD4E9012315
:1031400023491A4401322368B0FBF3F3B3FBF2F3D3
:103150008B4215D8B3F57A7F25D21E4A1E4C0092B9
:103160003246A4FB0564E408019404EB8404A5EB57
:1031700044051A4902953846FDF7A4F805B0F0BD9C
:10318000174A41F2C60103FB02F2B1EBB21F0AD3A8
:1031900001F1864101F5DE1101F6BD51A1FB0331BC
:1031A000104A8B0CDAE7104A104903FB02F2B1EB2C
:1031B000F20FD2D30E490F4AA1FB03318B09CDE7A1
:1031C0000D49324605B0BDE8F040FDF77BB800BFC1
:1031D0003F420F00249D0008CDCCCCCC0C9C0008B5
:1031E0003961C268F49B0008D578E9263789410027
:1031F000D34D6210DC9B0008F89B000870B50E6888
:1032000000241C6010F806C0ACF13005092D00EB5D
:10321000060E0FD804EB84040CEB4404303C1C6015
:1032200076461EF801CFACF13005092DF2D9C0F178
:1032300001000644624501D0002070BD01360E60D9
:10324000012070BD2DE9F04100241C600E68069D30
:10325000013E2C60064411E0A4F1370C5FFA8CFCAF
:103260008EF800C01E682C68013624011E602C6098
:103270009EF800C04CEA040476462C607478A4F1F1
:10328000300C5FFA8CFCBCF1090F06F1010EA4F1C1
:103290006107E5D9052FA4F14108A4F1570CDDD948
:1032A000B8F1050FD8D9C0F10100A242064403D0FD
:1032B00000200E60BDE8F081013601200E60BDE8FF
:1032C000F08100BFF0B50024151E1C602EDD0A68D9
:1032D000A64612E05FFA8CFC82F800C01C680A68FF
:1032E00024011C6010F802C00EF1010E01324CEAFC
:1032F000040475451C600A6018D0845CA4F1300C8D
:103300005FFA8CFCBCF1090F0244A4F16106E3D919
:10331000052EA4F14107A4F1570CDBD9052F03D8E2
:10332000373C5FFA84FCD7E70020F0BD0120F0BDF8
:10333000092894BF30303730C0B2704730B50378B9
:1033400003F06003202B87B0044625D0402B23D008
:1033500043B1802000F0D0FC002000F0CDFC002024
:1033600007B030BD4378092BF3D801A252F823F0FF
:10337000D7330008FF330008533300081D3400081A
:10338000533300082F340008693400085333000811
:1033900093340008A7330008994B20469B68984750
:1033A000002007B030BD8078964C01282070D0D81E
:1033B000954D95F89C32022B00F00681032B00F00E
:1033C000F380802000F098FC002000F095FC20782D
:1033D00000F080FAC3E78C4890F89C32013B022B46
:1033E000B7D8E1880229B4D1D0F8A032003B18BF89
:1033F00001235B0040F80C3F00F000FAAFE7824A7F
:1034000092F89C32013B022BA3D84388012BA6D112
:103410000023C2F8A03200F021FAA0E74388012B74
:103420009DD1794AC2F8A03200F018FA97E7838854
:10343000002B8ED1C388002B8BD143887F2B88D85B
:10344000714D95F89C22032A83D0DCB2204685F882
:103450009E4200F081FC00F001FA002C00F0CB80CD
:10346000022385F89C327AE743881A0A022A00F080
:103470009180032A26D0012A7FF46BAFC388002BEA
:10348000D2D062481221994228BF194600F0B6F9FD
:1034900065E7C18801297FF45CAF5B4890F89C32F6
:1034A000022B08D8002B3FF454AF002340F8083F0C
:1034B00000F0A4F953E7032B7FF44BAF043000F086
:1034C0009DF94CE7DBB2032B3FF643AFDFE803F097
:1034D0005B4730024E4BD3F89015D3F89825D3F8BC
:1034E00094350A4401A84B49FCF7ECFE01A8FDF70E
:1034F000A7F9411C484A9DF80400490089B20323FA
:103500001170537070B101AD02234FF0000CD05414
:10351000581CC0B2023302F800C015F8010FDBB22C
:103520000028F4D1E388002B3FF47EAF3A48AAE7A5
:10353000394A3A484FF44D71118000255321D15436
:10354000591CC9B20233555410F8011FDBB20029CF
:10355000F5D13421E388002B3FF466AFE6E72E4A2D
:103560002F4840F23A331380452102230025D154DD
:10357000591CC9B20233555410F8011FDBB200299F
:10358000F5D13A21E6E7C388002B3FF44DAF25483B
:10359000042178E72448E3888178002B3FF444AF86
:1035A00000293FF4DCAE6EE7E0B1686801283FF423
:1035B0003BAFC0B200F08EF92078686000F07EF971
:1035C00002287FF431AFC4E600283FF42DAF01207C
:1035D0000323686085F89C3200F070F902287FF4BC
:1035E00023AFB6E6022385F89C32686000F072F9DA
:1035F00000F034F9B3E6012385F89C32AFE600BF52
:10360000DC000020C0040020C4060020C800002008
:103610000070FF1F649C0008C4040020489C000840
:10362000289C0008800000208400002010B503784A
:103630005A0604460BD503F06002402A07D08020CA
:1036400000F05AFB002000F057FB002010BD0A4B91
:1036500093F89C32013B022BF1D82379012BEED851
:10366000064B20469B689847E388002BEDD1002845
:10367000EBD100F0F3F8E8E7C4060020DC000020FE
:1036800038B50378828803F06003202B38D0402BB4
:1036900036D03BB1802000F02FFB002000F02CFB47
:1036A000002038BD4378012BD4B23FD0032B2CD05F
:1036B000002BEFD13C4B93F89C1202294ED00329EA
:1036C000E8D104F00F01120601EB810155D403EBA0
:1036D0008101D1F85821002ADCD0142202FB0433E6
:1036E00003F5AA75002C56D0204600F021FB0028D7
:1036F00058D001232B600221284600F07FF8CFE745
:103700002A4B9B689847002038BD274B93F89C3282
:10371000022B1AD0032BBDD143889BB9650611D06B
:10372000C3887BB9204600F0E7FA0BE01E4B93F804
:103730009C32022B09D0032BACD14388002BAFD194
:1037400061062BD100F08AF8AAE76006A2D02046D5
:1037500000F0D2FA802000F0CFFAA1E714F07F0445
:1037600098D103F5AA7012F0800F03F1140318BF6B
:103770001846046000F042F892E703EB8102926978
:10378000002A87D004F07F02013202EB8202802CF3
:1037900003EB8205A8D100232B60ACE7204600F0A4
:1037A000B9FACFE72860A6E7C4060020DC000020B5
:1037B0000B7803704B7843704B8843808B888380F1
:1037C000CB88C380704700BF08B5802000F094FA12
:1037D000BDE80840002000F08FBA00BF054BD3F8C9
:1037E0009015D3F89825D3F894350A440249FCF78C
:1037F00069BD00BF0070FF1F649C000810B5064B38
:103800000A46022401460020C3E90722C3F8944275
:1038100000F0B0FA002010BDC406002008B50A462A
:103820000146002000F0A6FA002008BD10B5064BA6
:103830000A46032401460020C3E95722C3F89442F4
:1038400000F0A8FA002010BDC406002008B50A4602
:103850000146002000F09EFA002008BD10B50022AD
:10386000044B042411461046C3F8944200F082FA37
:10387000002010BDC406002010B50022044B052412
:1038800011461046C3F8944200F084FA002010BD9F
:10389000C4060020084B10B5012200241C7083F8D8
:1038A0009C2200F0C9F908B1204610BD00F0FAF9D9
:1038B000B0FA80F0400910BDC406002008B5044BE2
:1038C0001B689847003818BF0120400008BD00BFA2
:1038D000DC00002008B5024B5B689847002008BD5B
:1038E000DC000020014610B51448FFF761FF1448C2
:1038F00090F8A422B0F8AA12012402F01F03A342F8
:10390000C0E9A5410ED0022B06D08BB900F5297075
:10391000FFF714FD002010BD00F52970FFF7B0FE81
:10392000002010BD00F52970FFF780FE002010BDBB
:1039300002F0800000F0E0F9002010BD68090020CE
:10394000C406002010B560B90A461A49D1F894425D
:10395000032C13D0052C0DD1C1F8940200F0CCF942
:1039600008E0154B9B693BB1124A92F89C22032A4E
:1039700002D19847002010BD022010BDD1E9583077
:1039800083420AD91B1A9842C1F8603194BF81B2B0
:1039900099B21046FFF75AFFECE7074B1B691BB1C2
:1039A00091F89C22032A02D0FFF758FFE2E79847DC
:1039B000FAE700BFC4060020DC00002038B598B943
:1039C0002C4DD5F89422022A1BD032F0040302D1E8
:1039D000802000F091F995F89F32012B02D100234D
:1039E00085F89F32002038BD234B5B693BB1214AEB
:1039F00092F89C22032A02D198470020F3E7022084
:103A000038BD0B46D5E908218A4223D8EB69B3FBC0
:103A1000F1F401FB143484B999420ED8D5F89822F8
:103A200093420AD22146FFF7F9FE2246214620465C
:103A3000C5F8984200F0AEF9CDE70F4BDB681BB13B
:103A400095F89C22032A12D0802000F055F9FFF748
:103A500013FFC0E7521A044691B218462A62FFF7D4
:103A6000DDFE22462146204600F094F9B3E7984750
:103A7000EAE700BFC4060020DC00002070B500218A
:103A80000F4C40264022084600F018F90125324626
:103A900000218020C4F85851C4F8646100F00EF988
:103AA000084B84F89C520020A5616662C4F8940219
:103AB0006060C4F8A0025B68BDE87040184700BFB2
:103AC000C4060020DC000020014B18740020704761
:103AD000C4060020044B042293F89C1283F89D1224
:103AE00083F89C2200207047C4060020054B93F801
:103AF0009C22042A04BF93F89D2283F89C22002074
:103B0000704700BFC406002008B5074B93F89C32ED
:103B1000032B01D0002008BD044BDB69002BF9D03A
:103B20009847002008BD00BFC4060020DC0000202C
:103B30000E4A0F4B12689A4200D0704703F5DA33F1
:103B400000B5986D40F4000098659B6D83B003F458
:103B500000030193002202211420019B01F06EFD5D
:103B6000142003B05DF804EB01F0A4BD740900203B
:103B7000005C004008B501F069FC00B108BDBDE87B
:103B800008400148FFF7AEBE0C0C0020044B01EBCF
:103B9000810203EBC2030846D3F86411FFF7D2BEDB
:103BA00074090020044B01EB810203EBC2030846B9
:103BB000596AFFF703BF00BF74090020FFF7A4BFD5
:103BC00008B50120FFF780FFBDE80840FFF756BFAA
:103BD00008B5084B01221A70FEF770FAFFF77AFF5A
:103BE000054B5B7A23B1054A136943F00603136161
:103BF00008BD00BF700900207409002000ED00E03E
:103C000008B5074B5B7A23B1064A136923F0060314
:103C10001361FFF76BFF044B00221A7008BD00BF51
:103C20007409002000ED00E070090020014B1878B5
:103C3000704700BF7009002008B506480649074ACA
:103C4000012380E80E0003F0C7F8BDE8084001F04A
:103C50008DBB00BF74090020005C00400802000218
:103C600070B515460A462E6801461C469AB1334483
:103C70002B600B4843EA0643012204F087F82B68C7
:103C8000E01D184420F00700B0F5806F28608CBF5D
:103C90000020012070BD3346014804F077F8EEE7BC
:103CA0007409002008B5044803F080F918B102280F
:103CB0000CBF0120022008BD74090020844608B50D
:103CC00005480B46614603F037FF18B102280CBFC8
:103CD0000120022008BD00BF7409002008B501467C
:103CE000044803F065FF18B102280CBF0120022030
:103CF00008BD00BF7409002008B50146044803F060
:103D0000CDFF18B102280CBF0120022008BD00BF62
:103D10007409002008B50146044803F0FBFF18B100
:103D200002280CBF0120022008BD00BF740900203A
:103D30000206084B06D400EB800003EBC00393F8A7
:103D40005201704700F07F0000EB800003EBC003DE
:103D5000987C70477409002008B50146044803F0B8
:103D6000D7FE18B102280CBF0120022008BD00BFF9
:103D700074090020844608B5054813460A46614682
:103D800003F06EFF18B102280CBF0120022008BD0D
:103D900074090020844608B5054813460A46614662
:103DA00003F03AFF18B102280CBF0120022008BD21
:103DB000740900200146014803F048BF740900203F
:103DC0000D4885460D480E490E4A002302E0D4589E
:103DD000C4500433C4188C42F9D30B4A0B4C002353
:103DE00001E013600432A242FBD3FDF7C7FCFCF7ED
:103DF000E9FCFDF76BFCFEE70080002000000020DE
:103E00003C010020149E000840010020A85800201A
:103E1000FEE700000349044B0120002208701A60ED
:103E2000704700BF58040020500C00202DE9F043DB
:103E3000303A83B006460C4661B1082A06D8DFE85E
:103E400002F055716A055C6305053900322003B044
:103E5000BDE8F083142AF9D801A353F822F000BF7B
:103E6000B13F0008953F0008A33F0008413F00080C
:103E70004F3F00085D3F00086B3F0008DB3F000834
:103E8000E93F0008793F00084D3E00084D3E00081C
:103E90004D3E00084D3E00084D3E00084D3E0008D6
:103EA0004D3E0008873F0008CD3F0008333F000823
:103EB000BF3F00084FF0040805274FF002094546B0
:103EC0002046FFF7FDF8C3689D4228BF1D46012D1F
:103ED00088BF05F1FF35CDE9007543464A462146C6
:103EE0003046FEF719FA03B0BDE8F0830A274FF019
:103EF0001D084FF008093D46E2E705274FF00E0880
:103F00004FF002093D46DBE704274FF00B084FF066
:103F100002093D46D4E70A274FF01D084FF0020979
:103F20003D46CDE70A274FF01D084FF004093D46F6
:103F3000C6E750274FF0EF084FF00F093D46BFE7A7
:103F400050274FF0EF084FF005093D46B8E75027DE
:103F50004FF0EF084FF004093D46B1E750274FF00E
:103F6000EF084FF002093D46AAE750274FF0EF084F
:103F70004FF001093D46A3E750274FF0EF084FF0FF
:103F800006093D469CE73C274FF0B0084FF0090971
:103F90003D4695E750274FF0EF084FF019093D4691
:103FA0008EE750274FF0EF084FF00A093D4687E7AC
:103FB00050274FF0EF084FF032093D4680E7502779
:103FC0004FF0EF084FF064093D4679E750274FF076
:103FD000EF084FF008093D4672E732274FF0950889
:103FE0004FF001093D466BE728274FF077084FF067
:103FF00001093D4664E700BF2DE9F04389B0012384
:1040000007460D4603930DF110080DF1140914E055
:10401000039BEB5C6BBB069B032B264626D0082B31
:1040200027D1079B082B24D1DDE9042321463846FC
:10403000FEF7B0FB02281DD12EBBCDF8008006ABE9
:104040002C2203A92846FFF7FDF80446B8B1CDF8A5
:10405000009007AB3B2203A92846FFF7F3F800289E
:10406000D6D0069B032B4FF00006D8D1079B032B1D
:1040700003D0322009B0BDE8F0830024D4E7039BCD
:10408000EB5C002BF5D10220F4E700BF2DE9F043F3
:1040900000248DB00227CDE90544CDE907478046CD
:1040A0000D461646002A3BD08B780322422B0892FD
:1040B00051D0502B30D10DF120093A4609AB494679
:1040C0002846FFF7FFF838B3089BEA5C01333D2A26
:1040D000089321D106AB00932C220AAB494628460F
:1040E000FFF7B0F8C0B107AB00933E220BAB4946D7
:1040F0002846FFF7A7F8074670B10A9B032B36D076
:10410000082B09D10B9B082B06D14946284605AB45
:104110000122FFF7D7F868B932200DB0BDE8F0836F
:10412000084609AB3A4608A9FFF7CCF80028F3D0B7
:1041300034463746079B0393069B0293CDE90074F0
:104140009DF824209DF8141033464046FEF7C4FB2A
:104150000DB0BDE8F0830DF120093A4609AB4946A0
:104160002846FFF7AFF804460028ADD1D4E70B9BF3
:10417000032BD1D10027C8E72DE9F043ADF6BC7D74
:104180000C46072305460193022202AB01A92046F3
:10419000FFF798F850B1019B14F803800133B8F190
:1041A0003D0F01934BD0B8F13F0F06D04FF03208CE
:1041B00040460DF6BC7DBDE8F083E45C002CF5D1F3
:1041C0000298FDF78BFC002863D003884FF6FF723E
:1041D000934258D004AFB3F5FA6F4FF02B029946D3
:1041E0003A7028BF4FF4FA69002B4FD000F1020853
:1041F0003E4618F804000009FFF79AF8707018F8A6
:10420000040000F00F00FFF793F80134A3B29945C2
:1042100006F8020FEDD809F1FF339BB25B001A1DBF
:1042200092B203330D21F9542846394600F0F0FDCF
:104230004FF0010840460DF6BC7DBDE8F083E25C1E
:1042400004AFB2B13E46002509E0019B039AE35C4E
:1042500006F8012B01355BB1B5F5FA6FA8D003ABB9
:10426000022201A92046FFF72DF80028EDD19DE795
:10427000AAB202983946FDF759FC804640460DF631
:10428000BC7DBDE8F08304AF2B233B7002220123E9
:10429000C8E74FF03D088BE72DE9F043CFB0054666
:1042A0000C461646FEF750FB002859D0002E00F0B1
:1042B00068812178A1F12A034F2B55D8DFE813F04C
:1042C0002801540054005400540054005400540079
:1042D000540054005400540054005400540054003E
:1042E00054005400540054005400540054004C0135
:1042F00054006301540054007001540054005400F1
:10430000540054007B018B015400220254005400DD
:1043100054009B0054005400D400540054009B00EF
:1043200054005400540054005400540054005400ED
:1043300054005400540054001B0154005400540015
:1043400054005400540054005400540054005400CD
:104350005400A20054005400540054005400A20021
:104360002846FEF741FDA1E700232846CDE9133397
:10437000CDE91733FEF7F2FA2378C0074FF40002B5
:10438000423B16901992322B00F2E681DFE813F0DF
:104390002003E4011303E401E401E401E401E40186
:1043A000E401E401E401E401E401E401E401E401E5
:1043B0000C03E4010803E401E401E401E401E40185
:1043C000E401E401E401E401E401E401E401E401C5
:1043D0002E03E4012A03E401E401E401E401E40121
:1043E000E401E401E401E401E401E401E401E401A5
:1043F000AE02E401B102022E00F0E18132204FB0A2
:10440000BDE8F08301220F9210AB2C220FA92046A9
:10441000FEF7F4FE0028F1D011AB2C220FA92046A4
:10442000FEF7ECFE0028E9D012AB2C220FA92046A3
:10443000FEF7E4FE0028E1D01CAB00220FA92046C5
:10444000FEF7DCFE0028D9D021781C98DDE9113276
:10445000A1F17901B1FA81F1CDE900204909109A61
:104460002846FDF759FFCAE7012EC7D10020FEF705
:1044700027FE07463046FEF723FE064601F0C0F849
:104480000DF1480904464846FFF7A8F901F0BCF8C9
:104490008046FDF7E3F9C4F307210B91C4F307410C
:1044A000240ECDF830900A910994F1680891B16812
:1044B00007917168069131680591F9680491B968AE
:1044C000039179680291D3490346A1FB031338682D
:1044D000990CCDE900104246CF49D04B1CA8FBF700
:1044E000F1FE1CA8FCF7ACF91CA982B2284600F02A
:1044F0008FFC012083E763783A2B00F0A482012E21
:104500007FF47CAF28464FB0BDE8F043FEF7CEB94C
:10451000C3492046FCF714FF002800F08782C149F8
:104520002046FCF70DFF002800F0C681BE4920465A
:10453000FCF706FF002800F06982BC4907222046EC
:10454000FCF7B2FE002840F00781214628464FB014
:10455000BDE8F043FFF710BE022E7FF44FAF2846B0
:10456000FEF7F2F9002840F066826378302B00F005
:104570006482312B7FF442AFAD4A535D43F00103B7
:10458000535502203BE7012E7FF438AF2846FDF754
:10459000BBFDA84AA64B002142F825105E55A8E7AE
:1045A00063783A2B00F00381214628464FB0BDE8DE
:1045B000F043FFF721BD01211C9112AB00222046E0
:1045C0001CA9FEF71BFE00283FF418AF12992846DD
:1045D000FEF7A4F913E7012E7FF710AF631E1E4408
:1045E00014F8011FA1F13003432B3FF607AF01A2DE
:1045F00052F823F05D4700085D470008FD430008BE
:10460000FD430008FD430008FD430008FD4300088A
:10461000FD430008FD430008FD430008FD4300087A
:10462000FD430008FD430008FD430008FD4300086A
:10463000FD430008FD430008EF470008FD43000864
:10464000FD430008E3470008AD480008A148000802
:10465000FD430008FD43000897480008FD4300089B
:10466000FD430008FD4300088B480008FD43000897
:10467000FD430008FD430008FD430008854700088E
:104680005B480008FD430008FD430008FD430008A7
:10469000FD430008FD430008FD430008FD430008FA
:1046A000FD430008FD430008FD430008FD430008EA
:1046B000FD430008FD43000873480008FD4300085F
:1046C000FD430008674800084F48000843480008B9
:1046D000FD430008FD43000839480008FD43000879
:1046E000FD430008FD43000807480008FD4300089B
:1046F000FD430008FD430008FD430008854700080E
:10470000D7470008022E3FF779AE47D16378453B83
:104710000E2B3FF673AE01A252F823F0E3480008D7
:10472000FD430008FD430008FD430008D948000888
:10473000FD430008FD430008FD430008FD43000859
:10474000CF480008FD430008FD430008FD43000872
:10475000FD430008C5480008312050E62846FEF712
:10476000F3F8002840F067812378324AA3F131033F
:10477000B3FA83F35B095B0042F82530A6427FF46D
:104780002FAFFEE6A1F15201B1FA81F149092846A5
:10479000FEF7A4F80028F1D1362030E6254B53F877
:1047A000251028464FB0BDE8F043FDF731BB01228C
:1047B000214628464FB0BDE8F043FFF767BCA1F1A2
:1047C00059016278B1FA81F1490928464FB0BDE834
:1047D000F043FFF72BBB164A535D23F004035355F8
:1047E000CCE7134A535D43F010035355C6E7284600
:1047F000FEF7AAF8002840F01E810D4A535D43F0F1
:1048000001035355BAE70A4A535D23F00203535597
:10481000B4E700BF83DE1B43789C0008180626001F
:10482000289D0008309D00083C9D0008489D000818
:1048300058040020500C002000212846FEF768FA9A
:104840009CE7904A535D23F02003535596E78D4A29
:10485000535D23F00803535590E78A4A535D43F0B4
:10486000040353558AE7874A535D23F010035355D9
:1048700084E72846FEF768F8002840F0DC80814A8B
:10488000535D23F00103535578E77E4A535D43F0AF
:104890000203535572E701212846FEF739FA6DE706
:1048A000784A535D43F02003535567E7754A535DDB
:1048B00043F00803535561E703204FB0BDE8F043D0
:1048C000FDF706B8704B022143F8251069E76E4BDF
:1048D000002143F8251064E76B4B032143F82510B2
:1048E0005FE7694B042143F825105AE74FF0005366
:1048F0001493189BB3F5001F63D0139BB3F1804F43
:104900004FF001030F9314BF0322082212AB0FA92B
:104910002046FEF7D7FC00283FF470AD139B002B18
:104920006BD1129BB3F5006F6ED210AB01220FA9B1
:104930002046FEF7C7FC00283FF460AD189B109896
:1049400013B908283FF65AAD149B1590B3F1005FD8
:1049500018D0FEF7D1FB002814DD1CAF00EB0708D0
:104960000CE002220FA92046FEF7ACFC00283FF421
:1049700045AD119B07F8013BB84503D00F9BB342EF
:1049800011ABEEDB3F4B5B5D9B0772D40F9BB342D9
:104990007FF434AD1CAA12A9284600F05FFA2EE578
:1049A0004FF080431393A4E74FF080424FF0005341
:1049B000CDE913239DE74FF400124FF08043189286
:1049C00013932846FDF7D8FF002896D13A2016E524
:1049D0004FF400134FF48012CDE917234FF08043BA
:1049E0001393EEE74FF400131893EAE74FF48012A5
:1049F0004FF40013CDE91723E3E7B3F1804F94D1CF
:104A0000129BB3F1005F90D33D20F8E40220FCF745
:104A100031FF00283FF4C0AE1C4B1D490322022881
:104A200008BF1946284600F0F3F962E54FB0BDE82B
:104A3000F043FEF7BBBA3420E1E4124A535D23F0A1
:104A4000010353559DE502221CAB204612A9129288
:104A5000FEF738FC00283FF4D1AC0023CDE9023347
:104A6000CDE900339DF8702019462846FDF734FF44
:104A7000C5E40FA920461AAB0222FEF723FC00284A
:104A800084D1BBE458040020500C0020709C000826
:104A9000749C000810B5002444540A4682B00146B4
:104AA0002046FFF7F9FB01281CD00346154A022BCC
:104AB000107819D010F0200006D11349012202B05D
:104AC000BDE8104000F0A4B923214FF00D0C8DF883
:104AD00004100322204601A98DF805308DF806C088
:104AE00000F096F902B010BD10F0200007D0074981
:104AF0001A46204602B0BDE8104000F089B90449CA
:104B0000DCE700BF58040020589D0008509D0008B5
:104B1000549D000830B589B00446FDF799FFC8B12F
:104B20002046FDF78BFF057943780178827801955F
:104B3000C07800900A4303A80749FBF7C3FB0A2289
:104B400003A9204600F064F92046FEF743F820460A
:104B5000FDF764FB09B030BD5C9D000810B584B062
:104B60000A460446064901A8FBF7ACFB01A8FBF77F
:104B700067FE01A982B2204600F04AF904B010BDD8
:104B8000709D0008104B1B5C13F010031AD070B519
:104B9000054696B008460E46FBF752FE502888BFE1
:104BA0000A4E0B499ABF841CA4B2162432466846AA
:104BB000FBF788FB28462246694600F029F90120C8
:104BC00016B070BD1846704758040020789D000844
:104BD000909D0008014B0122DA6070473058002098
:104BE0000C4B41F6081202FB00F0191801F5C85CE5
:104BF0000022BCF800C002336CF30F0200F5C8506D
:104C00006CF31F4241F6061C1A50002301F80C30C9
:104C1000704700BF000D00202DE9F047054672B631
:104C2000BFF34F8FBFF36F8F734ED6F8203262B64B
:104C3000BFF36F8FD6F824229A4251D002F180033D
:104C400056F823C0BCF1000F3BD06C4FDFF8B09199
:104C500039780024A0460AE08E465FFA8AF1304493
:104C60003970035D09F80E300134644529D206EB32
:104C7000821390011B5D0D2B01F1010A11D0A429B3
:104C8000EAD9002208212846FDF7C2FED6F82422E0
:104C900002F180034FF0000E56F823C0012190016D
:104CA000DDE74846FFF7F6FED6F8242287F80080B5
:104CB00002F18003013456F823C064454FF000012F
:104CC000D5D372B6BFF34F8FBFF36F8FD6F82432B0
:104CD000013303F00703C6F8243262B6BFF36F8FC7
:104CE0004848494A00F54056F468631CA2FB031289
:104CF00022F0010101EB52029B1A32699A4205D05F
:104D000004F5406450F82420002A62D172B6BFF343
:104D10004F8FBFF36F8F34693B4B0134A3FB0423E8
:104D200023F0010202EB5303E41AF368A34257D1C4
:104D300062B6BFF36F8F354F41F6081605FB06F6D6
:104D4000BC1904F5C85808F1020821E0B8F80010B1
:104D500001F1240201EBC10106EB821206EB810195
:104D60003A443944FDF700FA41F60411B8F800302E
:104D7000625A41F606100132013302F03F024FF051
:104D8000000C03F03F03625204F800C0A8F80030A2
:104D900004F5C853B8F800201B889A4241F6061162
:104DA000284601D1635C93B1FDF70CFE024628460C
:104DB000002ACBD141F6081303FB057741F6061311
:104DC000FB5C23B1BDE8F0470421FDF721BEBDE83F
:104DD000F08703F54062F360002340F8223095E746
:104DE00004F5406330F8231000EB043000F07EFB44
:104DF00000289DD134619BE708260020540C002038
:104E0000580C002030280020ABAAAAAA000D0020D0
:104E1000F8B5114C04F54056C2F5805EF76807F509
:104E2000406354F8233003F1010CE6450ED303EB45
:104E3000073020441546FBF793FFF36803F5406302
:104E400054F823202A4444F82320F8BDBDE8F84054
:104E500000220821FDF7DCBD302800202DE9F047B5
:104E600007460E461446FDF795FD0228804659D1A7
:104E7000DFF8DC9041F6081507FB05F509EB0503A3
:104E800041F606129A5C002A4FD103F5C853B44686
:104E90001E8806EBC60605EB86064E440CF1200A7A
:104EA000DCF80000DCF80410DCF80820DCF80C303A
:104EB000B646AEE80F000CF1100CD4457646EFD1A3
:104EC00041F6081303FB0793DCF80000CEF800005E
:104ED00003F5C853A4461B88243305EB83154D44C2
:104EE00004F14006DCF80000DCF80410DCF80820CF
:104EF000DCF80C302C460FC40CF1100CB4452546E0
:104F0000F0D141F6081303FB079909F5C85241F6A1
:104F10000411138839F80110013303F03F0399425B
:104F200013800CD04046BDE8F087384600220421AB
:104F30004FF03708FDF76CFD4046BDE8F08741F6BD
:104F40000613012209F803204046BDE8F08700BFA0
:104F5000000D00202DE9F04F8B69ADB00E46814663
:104F60000192002B66D18B68B3F1005F0CBF7223F6
:104F700074238DF80830D6E900B30CBF52215421B8
:104F8000B3F1804F66D005274FF0060800974FF029
:104F9000040A0325691E6B1C02AAC9B21544083312
:104FA0006D1A0DEB03040BF00F00FEF7C1F904F8C6
:104FB000010DA5424FEA1B1BF5D1F568E8B2FEF7DB
:104FC000B7F90AF1B0030DEB030AB3680AF8A80CAD
:104FD000B3F1005F48D1484B13F809305B0703D5A4
:104FE000B369B3F5001F76D0444C04F5405507F182
:104FF000B003EA6802F540610DEB030754F82100A5
:105000000D2307F8A83C411CC8F580538B425AD3A6
:1050100000EB023002A942462044FBF7A1FEEB68F8
:1050200003F5406354F82320424444F823202DB074
:10503000BDE8F08F4B69B3F5801F0CBF622364237A
:105040008DF80830D6E900B30CBF42214421B3F1FA
:10505000804F98D10A278DF808104FF00B08009761
:105060004FF0090A082595E72846FEF745F8B0F104
:10507000000AB0DD019C009D04EB0A0720786B1C40
:1050800000095FFA83F8FEF753F905F1B0036B44AA
:10509000023503F8A80C14F8010B00F00F00FEF71E
:1050A00047F908F1B0036B44BC42EDB203F8A80C19
:1050B000E4D1009B03EB4A0B5FFA8BF707F1010881
:1050C0005FFA88F887E70022082148462DB0BDE83E
:1050D000F04FFDF79DBC3369B3F1004F84D107F168
:1050E000B0030DEB0307532307F8A83C08F10103B5
:1050F00047465FFA83F877E75804002030280020FD
:1051000010B584B091F820201349044601A8FBF79C
:10511000D9F8124B03F5405140F6FC7CC86800F505
:10512000406253F8222002F1010EE6450DD802EB51
:10513000003201989850CA6802F5406253F8221074
:10514000043143F8221004B010BD0022082120468B
:10515000FDF75EFC04B010BD989D000830280020CB
:1051600010B5084C94F84000FF2808D0064B94F87E
:1051700041209B6821469847FF2384F84030002057
:1051800010BD00BF485800200401002010B582B0B7
:10519000037800228DF80520ADF8062013F0600298
:1051A000044617D0202A05D02046FEF70DFB02202A
:1051B00002B010BDC28890F801C0EAB11B0633D519
:1051C0001E4B1F499B6860469847E1881C48FEF7C4
:1051D00015FB16E043780A2B1BD00B2B13D0002BAA
:1051E000E2D1184B93F89C32032BDDD102210DF153
:1051F0000600FEF703FB04E0104B01469B68604687
:1052000098470020D4E70F4B93F89C32032BF8D03B
:10521000CAE70C4B93F89C32032BC5D101210DF149
:105220000500FEF7EBFAECE70548114680F840C0B0
:1052300080F84120FEF7FAFAE3E700BF04010020FE
:1052400048580020C406002038B5124B124D0124E6
:105250004022022181201C70FEF730FD40220221F5
:105260002046EC62FEF72AFD082203218220C5F8C1
:105270006C41FEF723FD094B2C641B689847084BD3
:105280000025596C5D65402220469D65FEF782FD34
:10529000284638BD44580020C406002004010020E0
:1052A0004858002008B5FEF785FD074B07491B78D5
:1052B000C8640BB9022008BD054B486CDB684C3153
:1052C0009847002008BD00BF4458002048580020DF
:1052D0000401002008B5104B1A780AB9022008BD55
:1052E0000E4A00EB800302EB830CDCF81C2042B179
:1052F0000B4901EBC3031B6AB2FBF3F103FB112261
:1053000022B1084B00225A65002008BD1146CCF896
:105310001C20FEF72FFDF7E744580020C4060020AC
:10532000740900204858002070B50D4C23780BB943
:10533000002070BD0B4E8120FEF7D0FC002501201F
:10534000F562FEF7CBFC8220C6F86C51FEF7C6FC76
:10535000054B35645B6898472570002070BD00BF21
:1053600044580020C40600200401002000B583B08A
:10537000182000210190402301AA0846FEF770FC86
:1053800008B3402301AA00218020FEF769FCD0B1B8
:10539000402301AA00210120FEF762FC98B14023BE
:1053A00001AA00218120FEF75BFC60B1082301AA5D
:1053B00000218220FEF754FC80F001004000C0B2C2
:1053C00003B05DF804FB022003B05DF804FB00BFEE
:1053D000024B986419650020704700BF48580020B0
:1053E000014B5864002070474858002038B50B4BDB
:1053F0001B7883B10A4B5C6D0CB1012038BD186D70
:10540000084D996C286301225A6582B28120FEF70B
:10541000B1FC204638BD022038BD00BF44580020F2
:1054200048580020C406002008B5064B1B780BB96D
:10543000022008BD044B4022596C0120FEF7AAFC53
:10544000002008BD44580020485800200020704724
:105450000020704708B5094B03F540520021106940
:1054600003EB0030FFF7B4FF054BD3F8200203EB4A
:105470008010FFF7B5FF002008BD00BF30280020D6
:1054800008260020212806D14FF4E130002208230D
:1054900008608A808B710020704700BF10B5124CE5
:1054A000D4E98820531C03F0070398420ED1002250
:1054B00010460421FDF7ACFAD4F8200204EB80106A
:1054C000FFF78EFFFFF7B0FF012010BD80320968A3
:1054D00044F8221004EB8310C4F82032FFF780FF59
:1054E000FFF7A2FF002010BD0826002008B5054BDD
:1054F0005B6D0BB1012008BDFFF76AFFBDE80840F6
:10550000FFF774BF48580020704700BF704700BFC6
:1055100010B5094B4FF0FF3200249A639C631A6464
:105520001C649A629C62DA62DC621A631C63FFF795
:10553000EDFF204610BD00BF0010024038B50F4BF4
:105540001B680BB9012038BD0D494FF47A7205462E
:10555000B2FBF3F30868B0FBF3F000F0B9F80446CF
:105560000028EFD10F2DEDD8024629464FF0FF302D
:1055700000F064F8034B20461D6038BD1401002084
:1055800054000020180100200A4A136823F48063A5
:1055900010B50320136000F03FF80020FFF7CEFFA6
:1055A00010B10124204610BD0446FFF7ADFF204690
:1055B00010BD00BF00200240034A04491368096877
:1055C0000B441360704700BFA45800201401002052
:1055D000014B1868704700BFA458002038B5044636
:1055E000FFF7F6FF631C054602D0044B1B681C4402
:1055F000FFF7EEFF401BA042FAD338BD1401002094
:105600000048704700050201024B1868C0F30B0008
:10561000704700BF002004E00749CA6803024FF644
:10562000FF0003F4E0630240134343F0BF6343F41D
:105630000033CB60704700BF00ED00E01B4BDB6820
:10564000C3F3022300B5C3F1070EBEF1040F03F14B
:10565000040C28BF4FF0040EBCF1060F1CD9A3F1B7
:10566000030C4FF0FF3303FA0CF322EA03024FF06E
:10567000FF3303FA0EF321EA030303FA0CF3134397
:105680001B010028DBB20ADB00F1604000F561403D
:1056900080F800335DF804FB00229446E7E7044AF3
:1056A00000F00F00024413765DF804FB00ED00E00B
:1056B000FCEC00E0002807DB044A4109012300F06C
:1056C0001F00834042F82130704700BF00E100E036
:1056D0000138B0F1807F01D30120704710B44FF042
:1056E000E023064C58614FF0F00C84F823C00022F0
:1056F000072110469A6110BC1961704700ED00E067
:10570000704700BF08B5FFF7FBFF08BD704700BF3B
:10571000002800F0D98038B590F85C30044603F0DA
:10572000FF02002B71D02268936923F0100393616C
:10573000FFF74EFF054604E0FFF74AFF401B0A282B
:105740005AD823689A691107F6D49A6942F001027F
:105750009A61FFF73DFF054604E0FFF739FF401B64
:105760000A2849D823689A69D207F6D59A6959490F
:1057700042F002028B429A6100F0A180227C012A51
:105780009A690CBF22F0400242F040029A61627CAA
:10579000012A9A690CBF42F4804222F480429A6145
:1057A000A27C012A9A690CBF22F4805242F48052F2
:1057B0009A619A69A068E16822F4407202439A6192
:1057C0009A6922F0A4029A611A69012922F0100252
:1057D0001A611FD011B302299A6977D042F0800272
:1057E0009A611A69032942F010021A6116D19A6966
:1057F00042F020029A6111E0236E032243F001037C
:10580000236684F85C20012038BD80F85D20FFF716
:105810007DFF88E79A6942F004029A61D4E9061292
:10582000013A0139120242EA4162216A01390A430E
:105830006169013942EA0142B0F5407FDA610ED177
:10584000D4E90B02A16A013A01381201013942EA96
:1058500000220A43616A013942EA0142DA60D3F860
:10586000C020E06B616BA56B0243C3F8C020D3F886
:1058700080201948206422F4F81242EA0142C3F859
:105880008020D3F880201549616422F0706242EADA
:105890000562C3F88020124B124A4031C4E912134A
:1058A000F033C4E9142300214FF45472FBF734F8A9
:1058B00000200123206684F85C30A06538BD0A4AC8
:1058C0006168C2F8001559E70120704742F02002D4
:1058D0009A61A3E70064004000A4004070A4004067
:1058E00088A5004060A6004000600040704700BFEF
:1058F000002847D010B590F85C200368022A0446BF
:105900002FD19A6942F001029A619A69D0073BD47B
:105910009A69D10738D49A69D20735D49A69D007E1
:1059200032D49A69D1072FD49A69D2072CD49A69B4
:10593000D00729D49A69D10726D49A69D20723D4EB
:105940009A69D00720D49A69D1071DD49A69D207E1
:105950001AD4226E032142F00102226684F85C1000
:1059600003E0026E42F008020266DA6D22F00302E2
:105970002046DA65FFF7BAFF0023236684F85C301F
:10598000184610BD012070479A6922F010029A61F2
:105990009A69100720D59A6911071DD59A691207CF
:1059A0001AD59A69100717D59A69110714D59A69FB
:1059B000120711D59A6910070ED59A6911070BD5F0
:1059C0009A69120708D59A69100705D59A691107CF
:1059D00002D59A691207BCD49A69002042F00202EB
:1059E00001219A61A06584F85C10BEE790F85C2004
:1059F000013A012A034605D9026E42F00202012053
:105A00001A66704770B48A684869D1E90354D1E9CD
:105A10000061920756B942EAC56202431B6C42EA32
:105A20000442002070BC43F8212070475B6C44EABC
:105A3000457443F8314003EBC1031043586070BC18
:105A400000207047844690F85C00012807D0DCF8FD
:105A5000603043F004030120CCF86030704710B48C
:105A60000198DCF8004040EA4303D4F8800043EAA0
:105A7000820242EA011120F03F030B43C4F8803058
:105A8000002010BC704700BF90F85C20012A03463C
:105A900005D0026E42F0040201201A6670470268C7
:105AA000136A23F470230B4300201362704700BF76
:105AB00090F85C20012A034605D0026E42F00402F1
:105AC00001201A6670470268136A23F003030B4330
:105AD00000201362704700BF034690F85C00012865
:105AE00005D01A6E42F0040201201A6670471B6846
:105AF00042EA01229A640020704700BF90F85C20BF
